{
  "abi": [
    {
      "inputs": [
        {
          "internalType": "contract IEntryPoint",
          "name": "_entryPoint",
          "type": "address"
        },
        {
          "internalType": "address",
          "name": "webAuthnVerifier",
          "type": "address"
        },
        {
          "internalType": "address",
          "name": "loginService",
          "type": "address"
        }
      ],
      "stateMutability": "nonpayable",
      "type": "constructor"
    },
    {
      "inputs": [],
      "name": "accountImplementation",
      "outputs": [
        {
          "internalType": "contract WebAuthnAccount",
          "name": "",
          "type": "address"
        }
      ],
      "stateMutability": "view",
      "type": "function"
    },
    {
      "inputs": [
        {
          "internalType": "string",
          "name": "login",
          "type": "string"
        },
        {
          "internalType": "uint256",
          "name": "salt",
          "type": "uint256"
        }
      ],
      "name": "createAccount",
      "outputs": [
        {
          "internalType": "contract WebAuthnAccount",
          "name": "",
          "type": "address"
        }
      ],
      "stateMutability": "nonpayable",
      "type": "function"
    },
    {
      "inputs": [
        {
          "internalType": "string",
          "name": "login",
          "type": "string"
        },
        {
          "internalType": "bytes",
          "name": "credId",
          "type": "bytes"
        },
        {
          "internalType": "uint256[2]",
          "name": "pubKeyCoordinates",
          "type": "uint256[2]"
        },
        {
          "internalType": "uint256",
          "name": "salt",
          "type": "uint256"
        }
      ],
      "name": "createAccount",
      "outputs": [
        {
          "internalType": "contract WebAuthnAccount",
          "name": "",
          "type": "address"
        }
      ],
      "stateMutability": "nonpayable",
      "type": "function"
    },
    {
      "inputs": [
        {
          "internalType": "string",
          "name": "login",
          "type": "string"
        },
        {
          "internalType": "uint256",
          "name": "salt",
          "type": "uint256"
        }
      ],
      "name": "getAddress",
      "outputs": [
        {
          "internalType": "address",
          "name": "",
          "type": "address"
        }
      ],
      "stateMutability": "view",
      "type": "function"
    }
  ],
  "bytecode": {
    "object": "0x60a060405234801561001057600080fd5b50604051616a85380380616a8583398101604081905261002f916100be565b8282823060405161003f90610099565b6001600160a01b039485168152928416602084015290831660408301529091166060820152608001604051809103906000f080158015610083573d6000803e3d6000fd5b506001600160a01b03166080525061010b915050565b615c9880610ded83390190565b6001600160a01b03811681146100bb57600080fd5b50565b6000806000606084860312156100d357600080fd5b83516100de816100a6565b60208501519093506100ef816100a6565b6040850151909250610100816100a6565b809150509250925092565b608051610cb361013a60003960008181605d0152818161011f0152818161028001526103b20152610cb36000f3fe60806040523480156200001157600080fd5b5060043610620000525760003560e01c806311464fbe146200005757806321ec125314620000a85780636586ace614620000bf578063a4164f8614620000d6575b600080fd5b6200007f7f000000000000000000000000000000000000000000000000000000000000000081565b60405173ffffffffffffffffffffffffffffffffffffffff909116815260200160405180910390f35b6200007f620000b9366004620005c3565b620000ed565b6200007f620000d0366004620005c3565b6200023e565b6200007f620000e736600462000613565b62000370565b6000620002348260001b60405180602001620001099062000569565b6020820181038252601f19601f820116604052507f0000000000000000000000000000000000000000000000000000000000000000878760405160240162000153929190620006f3565b604080517fffffffffffffffffffffffffffffffffffffffffffffffffffffffffffffffe0818403018152918152602080830180517bffffffffffffffffffffffffffffffffffffffffffffffffffffffff167ff62d1888000000000000000000000000000000000000000000000000000000001790529051620001da939291016200072f565b604080517fffffffffffffffffffffffffffffffffffffffffffffffffffffffffffffffe0818403018152908290526200021892916020016200079f565b6040516020818303038152906040528051906020012062000536565b90505b9392505050565b6000806200024e858585620000ed565b905073ffffffffffffffffffffffffffffffffffffffff81163b8015620002785750905062000237565b60008460001b7f00000000000000000000000000000000000000000000000000000000000000008888604051602401620002b4929190620006f3565b604080517fffffffffffffffffffffffffffffffffffffffffffffffffffffffffffffffe08184030181529181526020820180517bffffffffffffffffffffffffffffffffffffffffffffffffffffffff167ff62d18880000000000000000000000000000000000000000000000000000000017905251620003369062000569565b620003439291906200072f565b8190604051809103906000f590508015801562000364573d6000803e3d6000fd5b50979650505050505050565b60008062000380888885620000ed565b905073ffffffffffffffffffffffffffffffffffffffff81163b8015620003aa575090506200052c565b60008460001b7f00000000000000000000000000000000000000000000000000000000000000008b8b604051602401620003e6929190620006f3565b604080517fffffffffffffffffffffffffffffffffffffffffffffffffffffffffffffffe08184030181529181526020820180517bffffffffffffffffffffffffffffffffffffffffffffffffffffffff167ff62d18880000000000000000000000000000000000000000000000000000000017905251620004689062000569565b620004759291906200072f565b8190604051809103906000f590508015801562000496573d6000803e3d6000fd5b506040517fff69191d00000000000000000000000000000000000000000000000000000000815290915073ffffffffffffffffffffffffffffffffffffffff82169063ff69191d90620004f2908b908b908b90600401620007d2565b600060405180830381600087803b1580156200050d57600080fd5b505af115801562000522573d6000803e3d6000fd5b5092955050505050505b9695505050505050565b6000620002378383306000604051836040820152846020820152828152600b8101905060ff815360559020949350505050565b6104b880620007fb83390190565b60008083601f8401126200058a57600080fd5b50813567ffffffffffffffff811115620005a357600080fd5b602083019150836020828501011115620005bc57600080fd5b9250929050565b600080600060408486031215620005d957600080fd5b833567ffffffffffffffff811115620005f157600080fd5b620005ff8682870162000577565b909790965060209590950135949350505050565b60008060008060008060a087890312156200062d57600080fd5b863567ffffffffffffffff808211156200064657600080fd5b620006548a838b0162000577565b909850965060208901359150808211156200066e57600080fd5b506200067d89828a0162000577565b90955093505060808701888111156200069557600080fd5b60408801925080359150509295509295509295565b8183528181602085013750600060208284010152600060207fffffffffffffffffffffffffffffffffffffffffffffffffffffffffffffffe0601f840116840101905092915050565b60208152600062000234602083018486620006aa565b60005b83811015620007265781810151838201526020016200070c565b50506000910152565b73ffffffffffffffffffffffffffffffffffffffff8316815260406020820152600082518060408401526200076c81606085016020870162000709565b601f017fffffffffffffffffffffffffffffffffffffffffffffffffffffffffffffffe016919091016060019392505050565b60008351620007b381846020880162000709565b835190830190620007c981836020880162000709565b01949350505050565b606081526000620007e8606083018587620006aa565b9050604083602084013794935050505056fe60806040526040516104b83803806104b8833981016040819052610022916102de565b61002e82826000610035565b50506103fb565b61003e83610061565b60008251118061004b5750805b1561005c5761005a83836100a1565b505b505050565b61006a816100cd565b6040516001600160a01b038216907fbc7cd75a20ee27fd9adebab32041f755214dbc6bffa90cc0225b39da2e5c2d3b90600090a250565b60606100c6838360405180606001604052806027815260200161049160279139610180565b9392505050565b6001600160a01b0381163b61013f5760405162461bcd60e51b815260206004820152602d60248201527f455243313936373a206e657720696d706c656d656e746174696f6e206973206e60448201526c1bdd08184818dbdb9d1c9858dd609a1b60648201526084015b60405180910390fd5b7f360894a13ba1a3210667c828492db98dca3e2076cc3735a920a3ca505d382bbc80546001600160a01b0319166001600160a01b0392909216919091179055565b6060600080856001600160a01b03168560405161019d91906103ac565b600060405180830381855af49150503d80600081146101d8576040519150601f19603f3d011682016040523d82523d6000602084013e6101dd565b606091505b5090925090506101ef868383876101f9565b9695505050505050565b60608315610268578251600003610261576001600160a01b0385163b6102615760405162461bcd60e51b815260206004820152601d60248201527f416464726573733a2063616c6c20746f206e6f6e2d636f6e74726163740000006044820152606401610136565b5081610272565b610272838361027a565b949350505050565b81511561028a5781518083602001fd5b8060405162461bcd60e51b815260040161013691906103c8565b634e487b7160e01b600052604160045260246000fd5b60005b838110156102d55781810151838201526020016102bd565b50506000910152565b600080604083850312156102f157600080fd5b82516001600160a01b038116811461030857600080fd5b60208401519092506001600160401b038082111561032557600080fd5b818501915085601f83011261033957600080fd5b81518181111561034b5761034b6102a4565b604051601f8201601f19908116603f01168101908382118183101715610373576103736102a4565b8160405282815288602084870101111561038c57600080fd5b61039d8360208301602088016102ba565b80955050505050509250929050565b600082516103be8184602087016102ba565b9190910192915050565b60208152600082518060208401526103e78160408501602087016102ba565b601f01601f19169190910160400192915050565b6088806104096000396000f3fe608060405236601057600e6013565b005b600e5b601f601b6021565b6065565b565b600060607f360894a13ba1a3210667c828492db98dca3e2076cc3735a920a3ca505d382bbc5473ffffffffffffffffffffffffffffffffffffffff1690565b905090565b3660008037600080366000845af43d6000803e8080156083573d6000f35b3d6000fd416464726573733a206c6f772d6c6576656c2064656c65676174652063616c6c206661696c6564610180604052306080526103e860a05261025860c0526201518060e0523480156200002957600080fd5b5060405162005c9838038062005c988339810160408190526200004c916200015d565b6001600160a01b038085166101605283811661010052828116610120528116610140526200007962000083565b50505050620001c5565b600054610100900460ff1615620000f05760405162461bcd60e51b815260206004820152602760248201527f496e697469616c697a61626c653a20636f6e747261637420697320696e697469604482015266616c697a696e6760c81b606482015260840160405180910390fd5b60005460ff9081161462000142576000805460ff191660ff9081179091556040519081527f7f26b83ff96e1f2b6a682f133852f6798a09c465da95921460cefb38474024989060200160405180910390a15b565b6001600160a01b03811681146200015a57600080fd5b50565b600080600080608085870312156200017457600080fd5b8451620001818162000144565b6020860151909450620001948162000144565b6040860151909350620001a78162000144565b6060860151909250620001ba8162000144565b939692955090935050565b60805160a05160c05160e051610100516101205161014051610160516159fd6200029b6000396000818161066b015281816111380152818161126101528181611c85015281816122630152818161293e01528181613024015261354701526000818161072101526135aa0152600081816104e701526142ad0152600081816103dd01528181612a4101528181613b450152613ddb01526000611f3601526000612d5a01526000612d920152600081816109ea01528181610a9a0152818161131d015281816113cd015261151b01526159fd6000f3fe6080604052600436106102885760003560e01c80637065cb4811610153578063bf57159b116100cb578063d087d2881161007f578063f23a6e6111610064578063f23a6e61146107a9578063f62d1888146107ef578063ff69191d1461080f57600080fd5b8063d087d28814610774578063d2a57ad11461078957600080fd5b8063c3db8838116100b0578063c3db8838146106fa578063c45a01551461070f578063c7f758a81461074357600080fd5b8063bf57159b146106cf578063c399ec88146106e557600080fd5b8063a1c0d45911610122578063b0d691fe11610107578063b0d691fe1461065c578063b61d27f61461068f578063bc197c81146106af57600080fd5b8063a1c0d4591461061c578063a526d83b1461063c57600080fd5b80637065cb481461058f57806371404156146105af5780637dcab4ce146105cf5780639f070142146105ef57600080fd5b80633659cfe6116102015780634a58db19116101b55780634f1ef2861161019a5780634f1ef2861461055157806352d1902d1461056457806354387ad71461057957600080fd5b80634a58db19146105295780634d44560d1461053157600080fd5b806341c9ddff116101e657806341c9ddff146104c05780634640fc4d146104d557806347e1da2a1461050957600080fd5b80633659cfe6146104805780633a871cdd146104a057600080fd5b8063150b7a02116102585780631c35b2f81161023d5780631c35b2f8146103cb5780632dfca445146104245780632f54bf6e1461043a57600080fd5b8063150b7a021461035a578063173825d9146103ab57600080fd5b806223de291461029457806301ffc9a7146102bb5780630c68ba21146102f05780630db026221461033657600080fd5b3661028f57005b600080fd5b3480156102a057600080fd5b506102b96102af3660046148d9565b5050505050505050565b005b3480156102c757600080fd5b506102db6102d636600461498a565b61082f565b60405190151581526020015b60405180910390f35b3480156102fc57600080fd5b506102db61030b3660046149cc565b73ffffffffffffffffffffffffffffffffffffffff1660009081526006602052604090205460ff1690565b34801561034257600080fd5b5061034c60015481565b6040519081526020016102e7565b34801561036657600080fd5b5061037a6103753660046149e9565b610914565b6040517fffffffff0000000000000000000000000000000000000000000000000000000090911681526020016102e7565b3480156103b757600080fd5b506102b96103c63660046149cc565b61093f565b3480156103d757600080fd5b506103ff7f000000000000000000000000000000000000000000000000000000000000000081565b60405173ffffffffffffffffffffffffffffffffffffffff90911681526020016102e7565b34801561043057600080fd5b5061034c60035481565b34801561044657600080fd5b506102db6104553660046149cc565b73ffffffffffffffffffffffffffffffffffffffff1660009081526005602052604090205460ff1690565b34801561048c57600080fd5b506102b961049b3660046149cc565b6109d3565b3480156104ac57600080fd5b5061034c6104bb366004614a5c565b610bda565b3480156104cc57600080fd5b506102b9610c00565b3480156104e157600080fd5b506103ff7f000000000000000000000000000000000000000000000000000000000000000081565b34801561051557600080fd5b506102b9610524366004614af5565b610f80565b6102b9611136565b34801561053d57600080fd5b506102b961054c366004614b8f565b6111dc565b6102b961055f366004614c7f565b611306565b34801561057057600080fd5b5061034c611501565b34801561058557600080fd5b5061034c60025481565b34801561059b57600080fd5b506102b96105aa3660046149cc565b6115ed565b3480156105bb57600080fd5b506102b96105ca3660046149cc565b611679565b3480156105db57600080fd5b506102b96105ea3660046149cc565b611705565b3480156105fb57600080fd5b5061060f61060a366004614d12565b611a30565b6040516102e79190614dd1565b34801561062857600080fd5b506102b9610637366004614de4565b611a7e565b34801561064857600080fd5b506102b96106573660046149cc565b611b36565b34801561066857600080fd5b507f00000000000000000000000000000000000000000000000000000000000000006103ff565b34801561069b57600080fd5b506102b96106aa366004614dfd565b611bc2565b3480156106bb57600080fd5b5061037a6106ca366004614e59565b611c11565b3480156106db57600080fd5b5061034c60045481565b3480156106f157600080fd5b5061034c611c3f565b34801561070657600080fd5b506102b9611cf6565b34801561071b57600080fd5b506103ff7f000000000000000000000000000000000000000000000000000000000000000081565b34801561074f57600080fd5b5061076361075e366004614de4565b612094565b6040516102e7959493929190614ef7565b34801561078057600080fd5b5061034c612216565b34801561079557600080fd5b506102b96107a4366004614f70565b612292565b3480156107b557600080fd5b5061037a6107c4366004614fcb565b7ff23a6e61000000000000000000000000000000000000000000000000000000009695505050505050565b3480156107fb57600080fd5b506102b961080a366004615035565b61237b565b34801561081b57600080fd5b506102b961082a366004614f70565b612510565b60007fffffffff0000000000000000000000000000000000000000000000000000000082167f150b7a020000000000000000000000000000000000000000000000000000000014806108c257507fffffffff0000000000000000000000000000000000000000000000000000000082167f4e2312e000000000000000000000000000000000000000000000000000000000145b8061090e57507fffffffff0000000000000000000000000000000000000000000000000000000082167f01ffc9a700000000000000000000000000000000000000000000000000000000145b92915050565b7f150b7a02000000000000000000000000000000000000000000000000000000005b95945050505050565b3360009081526005602052604090205460ff168061095c57503330145b6109c7576040517f08c379a000000000000000000000000000000000000000000000000000000000815260206004820152601060248201527f41434c3a3a206f6e6c79206f776e65720000000000000000000000000000000060448201526064015b60405180910390fd5b6109d081612585565b50565b73ffffffffffffffffffffffffffffffffffffffff7f0000000000000000000000000000000000000000000000000000000000000000163003610a98576040517f08c379a000000000000000000000000000000000000000000000000000000000815260206004820152602c60248201527f46756e6374696f6e206d7573742062652063616c6c6564207468726f7567682060448201527f64656c656761746563616c6c000000000000000000000000000000000000000060648201526084016109be565b7f000000000000000000000000000000000000000000000000000000000000000073ffffffffffffffffffffffffffffffffffffffff16610b0d7f360894a13ba1a3210667c828492db98dca3e2076cc3735a920a3ca505d382bbc5473ffffffffffffffffffffffffffffffffffffffff1690565b73ffffffffffffffffffffffffffffffffffffffff1614610bb0576040517f08c379a000000000000000000000000000000000000000000000000000000000815260206004820152602c60248201527f46756e6374696f6e206d7573742062652063616c6c6564207468726f7567682060448201527f6163746976652070726f7879000000000000000000000000000000000000000060648201526084016109be565b610bbe336000526005602052565b604080516000808252602082019092526109d091839190612727565b6000610be4612926565b610bee84846129c7565b9050610bf982612c45565b9392505050565b3360009081526006602052604090205460ff16610c79576040517f08c379a000000000000000000000000000000000000000000000000000000000815260206004820152601360248201527f41434c3a3a206f6e6c7920677561726469616e0000000000000000000000000060448201526064016109be565b600354600003610ce5576040517f08c379a000000000000000000000000000000000000000000000000000000000815260206004820152601960248201527f41434c3a3a20696e76616c69642070726f706f73616c2069640000000000000060448201526064016109be565b610cf0600354612cb0565b15610d7d576040517f08c379a000000000000000000000000000000000000000000000000000000000815260206004820152602660248201527f41434c3a3a20677561726469616e20616c7265616479207369676e656420707260448201527f6f706f73616c000000000000000000000000000000000000000000000000000060648201526084016109be565b60035460009081526007602052604090205474010000000000000000000000000000000000000000900460ff1615610e11576040517f08c379a000000000000000000000000000000000000000000000000000000000815260206004820152601f60248201527f41434c3a3a2070726f706f73616c20616c7265616479207265736f6c7665640060448201526064016109be565b60038054600090815260076020908152604080832060020180546001818101835591855292842090920180547fffffffffffffffffffffffff000000000000000000000000000000000000000016331790559254825291812082018054909190610e7c9084906150a6565b909155505060035460008181526007602052604090205473ffffffffffffffffffffffffffffffffffffffff1690610eb390612d3e565b15610f0f57600354600090815260076020526040902080547fffffffffffffffffffffff00ffffffffffffffffffffffffffffffffffffffff16740100000000000000000000000000000000000000001790556109d081612dca565b60035460008181526007602090815260409182902060010154825193845273ffffffffffffffffffffffffffffffffffffffff851691840191909152908201527f49c70961209a4b7094f03ff1e54f2dd8f38425aa77a72af54804727d9c1472af906060015b60405180910390a150565b610f8861300c565b8481148015610f9e5750821580610f9e57508281145b611004576040517f08c379a000000000000000000000000000000000000000000000000000000000815260206004820152601260248201527f77726f6e67206172726179206c656e677468000000000000000000000000000060448201526064016109be565b60008390036110ba5760005b858110156110b4576110a287878381811061102d5761102d6150b9565b905060200201602081019061104291906149cc565b6000858585818110611056576110566150b9565b905060200281019061106891906150e8565b8080601f0160208091040260200160405190810160405280939291908181526020018383808284376000920191909152506130b592505050565b806110ac8161514d565b915050611010565b5061112e565b60005b8581101561112c5761111a8787838181106110da576110da6150b9565b90506020020160208101906110ef91906149cc565b868684818110611101576111016150b9565b90506020020135858585818110611056576110566150b9565b806111248161514d565b9150506110bd565b505b505050505050565b7f00000000000000000000000000000000000000000000000000000000000000006040517fb760faf900000000000000000000000000000000000000000000000000000000815230600482015273ffffffffffffffffffffffffffffffffffffffff919091169063b760faf99034906024016000604051808303818588803b1580156111c157600080fd5b505af11580156111d5573d6000803e3d6000fd5b5050505050565b3360009081526005602052604090205460ff16806111f957503330145b61125f576040517f08c379a000000000000000000000000000000000000000000000000000000000815260206004820152601060248201527f41434c3a3a206f6e6c79206f776e65720000000000000000000000000000000060448201526064016109be565b7f00000000000000000000000000000000000000000000000000000000000000006040517f205c287800000000000000000000000000000000000000000000000000000000815273ffffffffffffffffffffffffffffffffffffffff848116600483015260248201849052919091169063205c287890604401600060405180830381600087803b1580156112f257600080fd5b505af115801561112e573d6000803e3d6000fd5b73ffffffffffffffffffffffffffffffffffffffff7f00000000000000000000000000000000000000000000000000000000000000001630036113cb576040517f08c379a000000000000000000000000000000000000000000000000000000000815260206004820152602c60248201527f46756e6374696f6e206d7573742062652063616c6c6564207468726f7567682060448201527f64656c656761746563616c6c000000000000000000000000000000000000000060648201526084016109be565b7f000000000000000000000000000000000000000000000000000000000000000073ffffffffffffffffffffffffffffffffffffffff166114407f360894a13ba1a3210667c828492db98dca3e2076cc3735a920a3ca505d382bbc5473ffffffffffffffffffffffffffffffffffffffff1690565b73ffffffffffffffffffffffffffffffffffffffff16146114e3576040517f08c379a000000000000000000000000000000000000000000000000000000000815260206004820152602c60248201527f46756e6374696f6e206d7573742062652063616c6c6564207468726f7567682060448201527f6163746976652070726f7879000000000000000000000000000000000000000060648201526084016109be565b6114f1336000526005602052565b6114fd82826001612727565b5050565b60003073ffffffffffffffffffffffffffffffffffffffff7f000000000000000000000000000000000000000000000000000000000000000016146115c8576040517f08c379a000000000000000000000000000000000000000000000000000000000815260206004820152603860248201527f555550535570677261646561626c653a206d757374206e6f742062652063616c60448201527f6c6564207468726f7567682064656c656761746563616c6c000000000000000060648201526084016109be565b507f360894a13ba1a3210667c828492db98dca3e2076cc3735a920a3ca505d382bbc90565b3360009081526005602052604090205460ff168061160a57503330145b611670576040517f08c379a000000000000000000000000000000000000000000000000000000000815260206004820152601060248201527f41434c3a3a206f6e6c79206f776e65720000000000000000000000000000000060448201526064016109be565b6109d081612dca565b3360009081526005602052604090205460ff168061169657503330145b6116fc576040517f08c379a000000000000000000000000000000000000000000000000000000000815260206004820152601060248201527f41434c3a3a206f6e6c79206f776e65720000000000000000000000000000000060448201526064016109be565b6109d081613132565b3360009081526006602052604090205460ff1661177e576040517f08c379a000000000000000000000000000000000000000000000000000000000815260206004820152601360248201527f41434c3a3a206f6e6c7920677561726469616e0000000000000000000000000060448201526064016109be565b60036002541015611811576040517f08c379a000000000000000000000000000000000000000000000000000000000815260206004820152603b60248201527f41434c3a3a206e6f7420656e6f75676820677561726469616e7320746f20707260448201527f6f706f7365206e6577206f776e657220286d696e696d756d203329000000000060648201526084016109be565b6003546000908152600760205260409020600201541580159061185e575060035460009081526007602052604090205474010000000000000000000000000000000000000000900460ff16155b156118eb576040517f08c379a000000000000000000000000000000000000000000000000000000000815260206004820152602660248201527f41434c3a3a206c61746573742070726f706f73616c206e6f742079657420726560448201527f736f6c766564000000000000000000000000000000000000000000000000000060648201526084016109be565b6003546118f99060016150a6565b60038181556000918252600760209081526040808420805473ffffffffffffffffffffffffffffffffffffffff87167fffffffffffffffffffffffff0000000000000000000000000000000000000000918216179091558354855281852060020180546001818101835591875293862090930180549091163317905591548352908220810180549192909161198f9084906150a6565b909155505060038054600090815260076020908152604080832080547fffffffffffffffffffffff00ffffffffffffffffffffffffffffffffffffffff169055835483529182902042908401559154815190815273ffffffffffffffffffffffffffffffffffffffff84169281019290925233908201527f1d66a9a8742996ed3cd2ef39261401cbd7cffd856851b944c947596cfc9f4b6090606001610f75565b6060611a3e82848688615185565b8080601f0160208091040260200160405190810160405280939291908181526020018383808284376000920191909152509293505050505b949350505050565b3360009081526005602052604090205460ff1680611a9b57503330145b611b01576040517f08c379a000000000000000000000000000000000000000000000000000000000815260206004820152601060248201527f41434c3a3a206f6e6c79206f776e65720000000000000000000000000000000060448201526064016109be565b60048190556040518181527f831cc2d20e13f1a154d4ec26bd307f776914d4b08134b52714482cc60773982c90602001610f75565b3360009081526005602052604090205460ff1680611b5357503330145b611bb9576040517f08c379a000000000000000000000000000000000000000000000000000000000815260206004820152601060248201527f41434c3a3a206f6e6c79206f776e65720000000000000000000000000000000060448201526064016109be565b6109d08161326a565b611bca61300c565b611c0b848484848080601f0160208091040260200160405190810160405280939291908181526020018383808284376000920191909152506130b592505050565b50505050565b7fbc197c81000000000000000000000000000000000000000000000000000000005b98975050505050505050565b6040517f70a0823100000000000000000000000000000000000000000000000000000000815230600482015260009073ffffffffffffffffffffffffffffffffffffffff7f000000000000000000000000000000000000000000000000000000000000000016906370a08231906024015b602060405180830381865afa158015611ccd573d6000803e3d6000fd5b505050506040513d601f19601f82011682018060405250810190611cf191906151af565b905090565b3360009081526005602052604090205460ff1680611d2357503360009081526006602052604090205460ff165b611d89576040517f08c379a000000000000000000000000000000000000000000000000000000000815260206004820152601c60248201527f41434c3a3a206f6e6c79206f776e6572206f7220677561726469616e0000000060448201526064016109be565b60035460009081526007602052604090205474010000000000000000000000000000000000000000900460ff1615611e1d576040517f08c379a000000000000000000000000000000000000000000000000000000000815260206004820152601f60248201527f41434c3a3a2070726f706f73616c20616c7265616479207265736f6c7665640060448201526064016109be565b3360009081526006602052604090205460ff168015611e3e57506000600454115b15611ef25760045460038054600090815260076020526040902001544291611e65916150a6565b10611ef2576040517f08c379a000000000000000000000000000000000000000000000000000000000815260206004820152603d60248201527f41434c3a3a20677561726469616e2063616e6e6f74206469736361726420707260448201527f6f706f73616c20756e74696c2074696d656c6f636b2072656c6173656400000060648201526084016109be565b3360009081526006602052604090205460ff168015611f115750600454155b15611fe95760038054600090815260076020526040902001544290611f5c9062ffffff7f000000000000000000000000000000000000000000000000000000000000000016906150a6565b10611fe9576040517f08c379a000000000000000000000000000000000000000000000000000000000815260206004820152603d60248201527f41434c3a3a20677561726469616e2063616e6e6f74206469736361726420707260448201527f6f706f73616c20756e74696c2074696d656c6f636b2072656c6173656400000060648201526084016109be565b600380546000908152600760205260409081902080547fffffffffffffffffffffff00ffffffffffffffffffffffffffffffffffffffff1674010000000000000000000000000000000000000000179055905490517f27116c550f5a629d364a8412ba7c63b6460642328da83b74683a02cd068a91779161208a91339091825273ffffffffffffffffffffffffffffffffffffffff16602082015260400190565b60405180910390a1565b6000806060818085158015906120ac57506003548611155b612112576040517f08c379a000000000000000000000000000000000000000000000000000000000815260206004820152601960248201527f41434c3a3a20696e76616c69642070726f706f73616c2069640000000000000060448201526064016109be565b6000868152600760209081526040808320815160a081018352815473ffffffffffffffffffffffffffffffffffffffff8116825274010000000000000000000000000000000000000000900460ff161515818501526001820154818401526002820180548451818702810187019095528085529194929360608601939092908301828280156121d757602002820191906000526020600020905b815473ffffffffffffffffffffffffffffffffffffffff1681526001909101906020018083116121ac575b50505091835250506003919091015460209182015281516040830151606084015192840151608090940151919b909a5091985091965090945092505050565b6040517f35567e1a0000000000000000000000000000000000000000000000000000000081523060048201526000602482018190529073ffffffffffffffffffffffffffffffffffffffff7f000000000000000000000000000000000000000000000000000000000000000016906335567e1a90604401611cb0565b3360009081526005602052604090205460ff16806122af57503330145b612315576040517f08c379a000000000000000000000000000000000000000000000000000000000815260206004820152601060248201527f41434c3a3a206f6e6c79206f776e65720000000000000000000000000000000060448201526064016109be565b61237683838080601f01602080910402602001604051908101604052809392919081815260200183838082843760009201919091525050604080518082018252925085915060029083908390808284376000920191909152506134ad915050565b505050565b600054610100900460ff161580801561239b5750600054600160ff909116105b806123b55750303b1580156123b5575060005460ff166001145b612441576040517f08c379a000000000000000000000000000000000000000000000000000000000815260206004820152602e60248201527f496e697469616c697a61626c653a20636f6e747261637420697320616c72656160448201527f647920696e697469616c697a656400000000000000000000000000000000000060648201526084016109be565b600080547fffffffffffffffffffffffffffffffffffffffffffffffffffffffffffffff00166001179055801561249f57600080547fffffffffffffffffffffffffffffffffffffffffffffffffffffffffffff00ff166101001790555b6124a98383613509565b801561237657600080547fffffffffffffffffffffffffffffffffffffffffffffffffffffffffffff00ff169055604051600181527f7f26b83ff96e1f2b6a682f133852f6798a09c465da95921460cefb38474024989060200160405180910390a1505050565b612518613592565b60095460ff1615612315576040517f08c379a000000000000000000000000000000000000000000000000000000000815260206004820152601860248201527f6669727374207369676e657220616c726561647920736574000000000000000060448201526064016109be565b73ffffffffffffffffffffffffffffffffffffffff811660009081526005602052604090205460ff16612614576040517f08c379a000000000000000000000000000000000000000000000000000000000815260206004820152601860248201527f41434c3a3a206e6f6e2d6578697374616e74206f776e6572000000000000000060448201526064016109be565b600180541161267f576040517f08c379a000000000000000000000000000000000000000000000000000000000815260206004820181905260248201527f41434c3a3a2077616c6c65742063616e6e6f74206265206f776e65726c65737360448201526064016109be565b60405173ffffffffffffffffffffffffffffffffffffffff821681527f58619076adf5bb0943d100ef88d52d7c3fd691b19d3a9071b555b651fbf418da9060200160405180910390a173ffffffffffffffffffffffffffffffffffffffff8116600090815260056020526040902080547fffffffffffffffffffffffffffffffffffffffffffffffffffffffffffffff001690556001805461272191906151c8565b60015550565b7f4910fdfa16fed3260ed0e7147f7cc6da11a60208b5b9406d12a635614ffd91435460ff161561275a5761237683613631565b8273ffffffffffffffffffffffffffffffffffffffff166352d1902d6040518163ffffffff1660e01b8152600401602060405180830381865afa9250505080156127df575060408051601f3d9081017fffffffffffffffffffffffffffffffffffffffffffffffffffffffffffffffe01682019092526127dc918101906151af565b60015b61286b576040517f08c379a000000000000000000000000000000000000000000000000000000000815260206004820152602e60248201527f45524331393637557067726164653a206e657720696d706c656d656e7461746960448201527f6f6e206973206e6f74205555505300000000000000000000000000000000000060648201526084016109be565b7f360894a13ba1a3210667c828492db98dca3e2076cc3735a920a3ca505d382bbc811461291a576040517f08c379a000000000000000000000000000000000000000000000000000000000815260206004820152602960248201527f45524331393637557067726164653a20756e737570706f727465642070726f7860448201527f6961626c6555554944000000000000000000000000000000000000000000000060648201526084016109be565b5061237683838361373b565b3373ffffffffffffffffffffffffffffffffffffffff7f000000000000000000000000000000000000000000000000000000000000000016146129c5576040517f08c379a000000000000000000000000000000000000000000000000000000000815260206004820152601c60248201527f6163636f756e743a206e6f742066726f6d20456e747279506f696e740000000060448201526064016109be565b565b600080806129d96101408601866150e8565b9050116129e7576000612a11565b6129f56101408501856150e8565b6000818110612a0657612a066150b9565b919091013560f81c90505b6003811115612a2257612a226151db565b90506000816003811115612a3857612a386151db565b03612b065760007f000000000000000000000000000000000000000000000000000000000000000073ffffffffffffffffffffffffffffffffffffffff1662a7029b6040518163ffffffff1660e01b8152600401600060405180830381865afa158015612aa9573d6000803e3d6000fd5b505050506040513d6000823e601f3d9081017fffffffffffffffffffffffffffffffffffffffffffffffffffffffffffffffe0168201604052612aef919081019061525a565b9050612afd81856001613760565b9250505061090e565b6001816003811115612b1a57612b1a6151db565b03612b7457612b6c612b306101408601866150e8565b8080601f01602080910402602001604051908101604052809392919081815260200183838082843760009201829052508893509150613c7d9050565b91505061090e565b6002816003811115612b8857612b886151db565b03612bd857612b6c612b9e6101408601866150e8565b8080601f016020809104026020016040519081016040528093929190818152602001838380828437600092019190915250613f0f92505050565b6003816003811115612bec57612bec6151db565b03612c3e57612b6c612c026101408601866150e8565b8080601f016020809104026020016040519081016040528093929190818152602001838380828437600092018290525088935091506137609050565b5092915050565b80156109d05760405160009033907fffffffffffffffffffffffffffffffffffffffffffffffffffffffffffffffff90849084818181858888f193505050503d80600081146111d5576040519150601f19603f3d011682016040523d82523d6000602084013e6111d5565b6000805b600083815260076020526040902060020154811015612d35576000838152600760205260409020600201805433919083908110612cf357612cf36150b9565b60009182526020909120015473ffffffffffffffffffffffffffffffffffffffff1603612d235750600192915050565b80612d2d8161514d565b915050612cb4565b50600092915050565b600254600082815260076020526040812060010154909161ffff7f00000000000000000000000000000000000000000000000000000000000000001691612db8906fffffffffffffffffffffffffffffffff7f0000000000000000000000000000000000000000000000000000000000000000169061528f565b612dc291906152a6565b101592915050565b73ffffffffffffffffffffffffffffffffffffffff8116612e47576040517f08c379a000000000000000000000000000000000000000000000000000000000815260206004820152601260248201527f41434c3a3a207a65726f2061646472657373000000000000000000000000000060448201526064016109be565b73ffffffffffffffffffffffffffffffffffffffff811660009081526005602052604090205460ff1615612ed7576040517f08c379a000000000000000000000000000000000000000000000000000000000815260206004820152601360248201527f41434c3a3a20616c7265616479206f776e65720000000000000000000000000060448201526064016109be565b73ffffffffffffffffffffffffffffffffffffffff811660009081526006602052604090205460ff1615612f67576040517f08c379a000000000000000000000000000000000000000000000000000000000815260206004820152601e60248201527f41434c3a3a20677561726469616e2063616e6e6f74206265206f776e6572000060448201526064016109be565b60405173ffffffffffffffffffffffffffffffffffffffff821681527f994a936646fe87ffe4f1e469d3d6aa417d6b855598397f323de5b449f765f0c39060200160405180910390a173ffffffffffffffffffffffffffffffffffffffff8116600090815260056020526040902080547fffffffffffffffffffffffffffffffffffffffffffffffffffffffffffffff001660019081179091558054612721916150a6565b3373ffffffffffffffffffffffffffffffffffffffff7f000000000000000000000000000000000000000000000000000000000000000016148061304f57503330145b6129c5576040517f08c379a000000000000000000000000000000000000000000000000000000000815260206004820181905260248201527f6163636f756e743a206e6f74204f776e6572206f7220456e747279506f696e7460448201526064016109be565b6000808473ffffffffffffffffffffffffffffffffffffffff1684846040516130de91906152e1565b60006040518083038185875af1925050503d806000811461311b576040519150601f19603f3d011682016040523d82523d6000602084013e613120565b606091505b5091509150816111d557805160208201fd5b73ffffffffffffffffffffffffffffffffffffffff811660009081526006602052604090205460ff166131c1576040517f08c379a000000000000000000000000000000000000000000000000000000000815260206004820152601b60248201527f41434c3a3a206e6f6e2d6578697374616e7420677561726469616e000000000060448201526064016109be565b60405173ffffffffffffffffffffffffffffffffffffffff821681527fb8107d0c6b40be480ce3172ee66ba6d64b71f6b1685a851340036e6e2e3e3c529060200160405180910390a173ffffffffffffffffffffffffffffffffffffffff8116600090815260066020526040902080547fffffffffffffffffffffffffffffffffffffffffffffffffffffffffffffff00169055600254613264906001906151c8565b60025550565b73ffffffffffffffffffffffffffffffffffffffff81166132e7576040517f08c379a000000000000000000000000000000000000000000000000000000000815260206004820152601260248201527f41434c3a3a207a65726f2061646472657373000000000000000000000000000060448201526064016109be565b73ffffffffffffffffffffffffffffffffffffffff811660009081526006602052604090205460ff1615613377576040517f08c379a000000000000000000000000000000000000000000000000000000000815260206004820152601660248201527f41434c3a3a20616c726561647920677561726469616e0000000000000000000060448201526064016109be565b73ffffffffffffffffffffffffffffffffffffffff811660009081526005602052604090205460ff1615613407576040517f08c379a000000000000000000000000000000000000000000000000000000000815260206004820152601e60248201527f41434c3a3a20677561726469616e2063616e6e6f74206265206f776e6572000060448201526064016109be565b60405173ffffffffffffffffffffffffffffffffffffffff821681527f038596bb31e2e7d3d9f184d4c98b310103f6d7f5830e5eec32bffe6f1728f9699060200160405180910390a173ffffffffffffffffffffffffffffffffffffffff8116600090815260066020526040902080547fffffffffffffffffffffffffffffffffffffffffffffffffffffffffffffff00166001908117909155600254613264916150a6565b80600a836040516134be91906152e1565b9081526040519081900360200190206134d8916002614804565b506009805460ff169060006134ec836152fd565b91906101000a81548160ff021916908360ff160217905550505050565b60086135168284836153b5565b50600860405161352691906154cf565b6040519081900381209073ffffffffffffffffffffffffffffffffffffffff7f000000000000000000000000000000000000000000000000000000000000000016907fcc8d54b06e49fa725f7cd31eca14c929e956281b71b4823d38fda2857c70dcd290600090a35050565b3373ffffffffffffffffffffffffffffffffffffffff7f000000000000000000000000000000000000000000000000000000000000000016146129c5576040517f08c379a000000000000000000000000000000000000000000000000000000000815260206004820152600c60248201527f6f6e6c7920666163746f7279000000000000000000000000000000000000000060448201526064016109be565b73ffffffffffffffffffffffffffffffffffffffff81163b6136d5576040517f08c379a000000000000000000000000000000000000000000000000000000000815260206004820152602d60248201527f455243313936373a206e657720696d706c656d656e746174696f6e206973206e60448201527f6f74206120636f6e74726163740000000000000000000000000000000000000060648201526084016109be565b7f360894a13ba1a3210667c828492db98dca3e2076cc3735a920a3ca505d382bbc80547fffffffffffffffffffffffff00000000000000000000000000000000000000001673ffffffffffffffffffffffffffffffffffffffff92909216919091179055565b613744836140b3565b6000825111806137515750805b1561237657611c0b8383614100565b60008060008060008060008060006137778c614125565b985098509850985098509850985098505060008060008061379785614167565b9450945094509450508d61383557600880546137b29061531c565b80601f01602080910402602001604051908101604052809291908181526020018280546137de9061531c565b801561382b5780601f106138005761010080835404028352916020019161382b565b820191906000526020600020905b81548152906001019060200180831161380e57829003601f168201915b5050505050613837565b835b60405160200161384791906152e1565b604051602081830303815290604052805190602001208460405160200161386e91906152e1565b60405160208183030381529060405280519060200120146138eb576040517f08c379a000000000000000000000000000000000000000000000000000000000815260206004820152601760248201527f696e636f7272656374206c6f67696e20666f722073696700000000000000000060448201526064016109be565b8d15613903576138fe838383600161419c565b613910565b613910838383600061419c565b505050508961391f578a613928565b61392885615563565b61393186615563565b14613998576040517f08c379a000000000000000000000000000000000000000000000000000000000815260206004820152601f60248201527f6368616c6c656e6765202620757365724f7048617368206d69736d617463680060448201526064016109be565b6000876036815181106139ad576139ad6150b9565b0160209081015160405160f89190911c92506000913091639f070142916139d6918d91016152e1565b604080517fffffffffffffffffffffffffffffffffffffffffffffffffffffffffffffffe08184030181529190526037613a1086826150a6565b6040518463ffffffff1660e01b8152600401613a2e939291906155a5565b600060405180830381865afa158015613a4b573d6000803e3d6000fd5b505050506040513d6000823e601f3d9081017fffffffffffffffffffffffffffffffffffffffffffffffffffffffffffffffe0168201604052613a91919081019061525a565b905060008c613ae957600a82604051613aaa91906152e1565b9081526040805191829003602001822082820190915260028282826020028201915b815481526020019060010190808311613acc575050505050613b3f565b60405180604001604052807f46bfdfbddbc22d475a21be7fb6fb597a9e7aca90a4e76ba93a19b26985c87a1581526020017fa0e41b38419d2837cf8ea557f91b638c01c12a70230724ef06825f2393a76a708152505b905060007f000000000000000000000000000000000000000000000000000000000000000073ffffffffffffffffffffffffffffffffffffffff1663e60b57048d8d8d8d8d60405180604001604052808f81526020018e81525060405180604001604052808b600060028110613bb757613bb76150b9565b602002015181526020018b600160028110613bd457613bd46150b9565b60200201518152506040518863ffffffff1660e01b8152600401613bfe97969594939291906155ed565b6020604051808303816000875af1158015613c1d573d6000803e3d6000fd5b505050506040513d601f19601f82011682018060405250810190613c419190615674565b90508d80613c4d575080155b15613c675760019c50505050505050505050505050610bf9565b5060009f9e505050505050505050505050505050565b6000806000806000806000806000613c948c614125565b985098509850985098509850985098505089613cb0578a613cb9565b613cb985615563565b613cc286615563565b14613d29576040517f08c379a000000000000000000000000000000000000000000000000000000000815260206004820152601f60248201527f6368616c6c656e6765202620757365724f7048617368206d69736d617463680060448201526064016109be565b60008a613d7f57600a82604051613d4091906152e1565b9081526040805191829003602001822082820190915260028282826020028201915b815481526020019060010190808311613d62575050505050613dd5565b60405180604001604052807f46bfdfbddbc22d475a21be7fb6fb597a9e7aca90a4e76ba93a19b26985c87a1581526020017fa0e41b38419d2837cf8ea557f91b638c01c12a70230724ef06825f2393a76a708152505b905060007f000000000000000000000000000000000000000000000000000000000000000073ffffffffffffffffffffffffffffffffffffffff1663e60b57048b8b8b8b8b60405180604001604052808d81526020018c81525060405180604001604052808b600060028110613e4d57613e4d6150b9565b602002015181526020018b600160028110613e6a57613e6a6150b9565b60200201518152506040518863ffffffff1660e01b8152600401613e9497969594939291906155ed565b6020604051808303816000875af1158015613eb3573d6000803e3d6000fd5b505050506040513d601f19601f82011682018060405250810190613ed79190615674565b90508b80613ee3575080155b15613efb5760019a5050505050505050505050610bf9565b5060009d9c50505050505050505050505050565b6000613f19612216565b15613fcc576040517f08c379a000000000000000000000000000000000000000000000000000000000815260206004820152604e60248201527f43616e277420757365204c6f67696e2053657276696365207369676e6174757260448201527f6520666f7220616e797468696e6720656c7365207468616e207468652066697260648201527f7374207472616e73616374696f6e000000000000000000000000000000000000608482015260a4016109be565b600080600080613fdb86614167565b9450945094509450506008604051602001613ff691906154cf565b604051602081830303815290604052805190602001208460405160200161401d91906152e1565b604051602081830303815290604052805190602001201461409a576040517f08c379a000000000000000000000000000000000000000000000000000000000815260206004820152601760248201527f696e636f7272656374206c6f67696e20666f722073696700000000000000000060448201526064016109be565b6140a7838383600061419c565b50600095945050505050565b6140bc81613631565b60405173ffffffffffffffffffffffffffffffffffffffff8216907fbc7cd75a20ee27fd9adebab32041f755214dbc6bffa90cc0225b39da2e5c2d3b90600090a250565b6060610bf983836040518060600160405280602781526020016159d660279139614390565b6000806060806060600080600060608980602001905181019061414891906156cb565b9850985098509850985098509850985098509193959799909294969850565b6000606080614174614842565b60608580602001905181019061418a9190615827565b939a9299509097509550909350915050565b8061420e5760095460ff161561420e576040517f08c379a000000000000000000000000000000000000000000000000000000000815260206004820152601860248201527f4669727374207369676e657220616c726561647920736574000000000000000060448201526064016109be565b604051600090614249907f020000000000000000000000000000000000000000000000000000000000000090600890889088906020016158e9565b60405160208183030381529060405280519060200120905060006142a48461429e847f19457468657265756d205369676e6564204d6573736167653a0a3332000000006000908152601c91909152603c902090565b90614415565b905082614386577f000000000000000000000000000000000000000000000000000000000000000073ffffffffffffffffffffffffffffffffffffffff168173ffffffffffffffffffffffffffffffffffffffff1614614386576040517f08c379a000000000000000000000000000000000000000000000000000000000815260206004820152602160248201527f696e636f7272656374206c6f67696e2073657276696365207369676e6174757260448201527f650000000000000000000000000000000000000000000000000000000000000060648201526084016109be565b61112e86866134ad565b60606000808573ffffffffffffffffffffffffffffffffffffffff16856040516143ba91906152e1565b600060405180830381855af49150503d80600081146143f5576040519150601f19603f3d011682016040523d82523d6000602084013e6143fa565b606091505b509150915061440b86838387614439565b9695505050505050565b600080600061442485856144d9565b915091506144318161451e565b509392505050565b606083156144cf5782516000036144c85773ffffffffffffffffffffffffffffffffffffffff85163b6144c8576040517f08c379a000000000000000000000000000000000000000000000000000000000815260206004820152601d60248201527f416464726573733a2063616c6c20746f206e6f6e2d636f6e747261637400000060448201526064016109be565b5081611a76565b611a7683836146d1565b600080825160410361450f5760208301516040840151606085015160001a61450387828585614715565b94509450505050614517565b506000905060025b9250929050565b6000816004811115614532576145326151db565b0361453a5750565b600181600481111561454e5761454e6151db565b036145b5576040517f08c379a000000000000000000000000000000000000000000000000000000000815260206004820152601860248201527f45434453413a20696e76616c6964207369676e6174757265000000000000000060448201526064016109be565b60028160048111156145c9576145c96151db565b03614630576040517f08c379a000000000000000000000000000000000000000000000000000000000815260206004820152601f60248201527f45434453413a20696e76616c6964207369676e6174757265206c656e6774680060448201526064016109be565b6003816004811115614644576146446151db565b036109d0576040517f08c379a000000000000000000000000000000000000000000000000000000000815260206004820152602260248201527f45434453413a20696e76616c6964207369676e6174757265202773272076616c60448201527f756500000000000000000000000000000000000000000000000000000000000060648201526084016109be565b8151156146e15781518083602001fd5b806040517f08c379a00000000000000000000000000000000000000000000000000000000081526004016109be9190614dd1565b6000807f7fffffffffffffffffffffffffffffff5d576e7357a4501ddfe92f46681b20a083111561474c57506000905060036147fb565b6040805160008082526020820180845289905260ff881692820192909252606081018690526080810185905260019060a0016020604051602081039080840390855afa1580156147a0573d6000803e3d6000fd5b50506040517fffffffffffffffffffffffffffffffffffffffffffffffffffffffffffffffe0015191505073ffffffffffffffffffffffffffffffffffffffff81166147f4576000600192509250506147fb565b9150600090505b94509492505050565b8260028101928215614832579160200282015b82811115614832578251825591602001919060010190614817565b5061483e929150614860565b5090565b60405180604001604052806002906020820280368337509192915050565b5b8082111561483e5760008155600101614861565b73ffffffffffffffffffffffffffffffffffffffff811681146109d057600080fd5b60008083601f8401126148a957600080fd5b50813567ffffffffffffffff8111156148c157600080fd5b60208301915083602082850101111561451757600080fd5b60008060008060008060008060c0898b0312156148f557600080fd5b883561490081614875565b9750602089013561491081614875565b9650604089013561492081614875565b955060608901359450608089013567ffffffffffffffff8082111561494457600080fd5b6149508c838d01614897565b909650945060a08b013591508082111561496957600080fd5b506149768b828c01614897565b999c989b5096995094979396929594505050565b60006020828403121561499c57600080fd5b81357fffffffff0000000000000000000000000000000000000000000000000000000081168114610bf957600080fd5b6000602082840312156149de57600080fd5b8135610bf981614875565b600080600080600060808688031215614a0157600080fd5b8535614a0c81614875565b94506020860135614a1c81614875565b935060408601359250606086013567ffffffffffffffff811115614a3f57600080fd5b614a4b88828901614897565b969995985093965092949392505050565b600080600060608486031215614a7157600080fd5b833567ffffffffffffffff811115614a8857600080fd5b84016101608187031215614a9b57600080fd5b95602085013595506040909401359392505050565b60008083601f840112614ac257600080fd5b50813567ffffffffffffffff811115614ada57600080fd5b6020830191508360208260051b850101111561451757600080fd5b60008060008060008060608789031215614b0e57600080fd5b863567ffffffffffffffff80821115614b2657600080fd5b614b328a838b01614ab0565b90985096506020890135915080821115614b4b57600080fd5b614b578a838b01614ab0565b90965094506040890135915080821115614b7057600080fd5b50614b7d89828a01614ab0565b979a9699509497509295939492505050565b60008060408385031215614ba257600080fd5b8235614bad81614875565b946020939093013593505050565b7f4e487b7100000000000000000000000000000000000000000000000000000000600052604160045260246000fd5b604051601f82017fffffffffffffffffffffffffffffffffffffffffffffffffffffffffffffffe016810167ffffffffffffffff81118282101715614c3157614c31614bbb565b604052919050565b600067ffffffffffffffff821115614c5357614c53614bbb565b50601f017fffffffffffffffffffffffffffffffffffffffffffffffffffffffffffffffe01660200190565b60008060408385031215614c9257600080fd5b8235614c9d81614875565b9150602083013567ffffffffffffffff811115614cb957600080fd5b8301601f81018513614cca57600080fd5b8035614cdd614cd882614c39565b614bea565b818152866020838501011115614cf257600080fd5b816020840160208301376000602083830101528093505050509250929050565b60008060008060608587031215614d2857600080fd5b843567ffffffffffffffff811115614d3f57600080fd5b614d4b87828801614897565b90989097506020870135966040013595509350505050565b60005b83811015614d7e578181015183820152602001614d66565b50506000910152565b60008151808452614d9f816020860160208601614d63565b601f017fffffffffffffffffffffffffffffffffffffffffffffffffffffffffffffffe0169290920160200192915050565b602081526000610bf96020830184614d87565b600060208284031215614df657600080fd5b5035919050565b60008060008060608587031215614e1357600080fd5b8435614e1e81614875565b935060208501359250604085013567ffffffffffffffff811115614e4157600080fd5b614e4d87828801614897565b95989497509550505050565b60008060008060008060008060a0898b031215614e7557600080fd5b8835614e8081614875565b97506020890135614e9081614875565b9650604089013567ffffffffffffffff80821115614ead57600080fd5b614eb98c838d01614ab0565b909850965060608b0135915080821115614ed257600080fd5b614ede8c838d01614ab0565b909650945060808b013591508082111561496957600080fd5b600060a0820173ffffffffffffffffffffffffffffffffffffffff80891684526020888186015260a0604086015282885180855260c087019150828a01945060005b81811015614f57578551851683529483019491830191600101614f39565b5050961515606086015250505050608001529392505050565b600080600060608486031215614f8557600080fd5b833567ffffffffffffffff811115614f9c57600080fd5b614fa886828701614897565b90945092505060608401851015614fbe57600080fd5b6020840190509250925092565b60008060008060008060a08789031215614fe457600080fd5b8635614fef81614875565b95506020870135614fff81614875565b94506040870135935060608701359250608087013567ffffffffffffffff81111561502957600080fd5b614b7d89828a01614897565b6000806020838503121561504857600080fd5b823567ffffffffffffffff81111561505f57600080fd5b61506b85828601614897565b90969095509350505050565b7f4e487b7100000000000000000000000000000000000000000000000000000000600052601160045260246000fd5b8082018082111561090e5761090e615077565b7f4e487b7100000000000000000000000000000000000000000000000000000000600052603260045260246000fd5b60008083357fffffffffffffffffffffffffffffffffffffffffffffffffffffffffffffffe184360301811261511d57600080fd5b83018035915067ffffffffffffffff82111561513857600080fd5b60200191503681900382131561451757600080fd5b60007fffffffffffffffffffffffffffffffffffffffffffffffffffffffffffffffff820361517e5761517e615077565b5060010190565b6000808585111561519557600080fd5b838611156151a257600080fd5b5050820193919092039150565b6000602082840312156151c157600080fd5b5051919050565b8181038181111561090e5761090e615077565b7f4e487b7100000000000000000000000000000000000000000000000000000000600052602160045260246000fd5b6000615218614cd884614c39565b905082815283838301111561522c57600080fd5b610bf9836020830184614d63565b600082601f83011261524b57600080fd5b610bf98383516020850161520a565b60006020828403121561526c57600080fd5b815167ffffffffffffffff81111561528357600080fd5b611a768482850161523a565b808202811582820484141761090e5761090e615077565b6000826152dc577f4e487b7100000000000000000000000000000000000000000000000000000000600052601260045260246000fd5b500490565b600082516152f3818460208701614d63565b9190910192915050565b600060ff821660ff810361531357615313615077565b60010192915050565b600181811c9082168061533057607f821691505b602082108103615369577f4e487b7100000000000000000000000000000000000000000000000000000000600052602260045260246000fd5b50919050565b601f82111561237657600081815260208120601f850160051c810160208610156153965750805b601f850160051c820191505b8181101561112e578281556001016153a2565b67ffffffffffffffff8311156153cd576153cd614bbb565b6153e1836153db835461531c565b8361536f565b6000601f84116001811461543357600085156153fd5750838201355b7fffffffffffffffffffffffffffffffffffffffffffffffffffffffffffffffff600387901b1c1916600186901b1783556111d5565b6000838152602090207fffffffffffffffffffffffffffffffffffffffffffffffffffffffffffffffe0861690835b828110156154825786850135825560209485019460019092019101615462565b50868210156154bd577fffffffffffffffffffffffffffffffffffffffffffffffffffffffffffffffff60f88860031b161c19848701351681555b505060018560011b0183555050505050565b60008083546154dd8161531c565b600182811680156154f5576001811461552857615557565b7fffffffffffffffffffffffffffffffffffffffffffffffffffffffffffffff0084168752821515830287019450615557565b8760005260208060002060005b8581101561554e5781548a820152908401908201615535565b50505082870194505b50929695505050505050565b80516020808301519190811015615369577fffffffffffffffffffffffffffffffffffffffffffffffffffffffffffffffff60209190910360031b1b16919050565b6060815260006155b86060830186614d87565b60208301949094525060400152919050565b8060005b6002811015611c0b5781518452602093840193909101906001016155ce565b60006101207fff000000000000000000000000000000000000000000000000000000000000008a1683528060208401526156298184018a614d87565b9050828103604084015261563d8189614d87565b905082810360608401526156518188614d87565b91505084608083015261566760a08301856155ca565b611c3360e08301846155ca565b60006020828403121561568657600080fd5b81518015158114610bf957600080fd5b80517fff00000000000000000000000000000000000000000000000000000000000000811681146156c657600080fd5b919050565b60008060008060008060008060006101208a8c0312156156ea57600080fd5b6156f38a615696565b985061570160208b01615696565b975060408a015167ffffffffffffffff8082111561571e57600080fd5b61572a8d838e0161523a565b985060608c015191508082111561574057600080fd5b61574c8d838e0161523a565b975060808c015191508082111561576257600080fd5b61576e8d838e0161523a565b965060a08c0151955060c08c0151945060e08c015193506101008c015191508082111561579a57600080fd5b506157a78c828d0161523a565b9150509295985092959850929598565b600082601f8301126157c857600080fd5b6040516040810181811067ffffffffffffffff821117156157eb576157eb614bbb565b806040525080604084018581111561580257600080fd5b845b8181101561581c578051835260209283019201615804565b509195945050505050565b600080600080600060c0868803121561583f57600080fd5b61584886615696565b9450602086015167ffffffffffffffff8082111561586557600080fd5b818801915088601f83011261587957600080fd5b6158888983516020850161520a565b9550604088015191508082111561589e57600080fd5b6158aa89838a0161523a565b94506158b98960608a016157b7565b935060a08801519150808211156158cf57600080fd5b506158dc8882890161523a565b9150509295509295909350565b7fff00000000000000000000000000000000000000000000000000000000000000851681526000602060a081840152600086546159258161531c565b8060a087015260c0600180841660008114615947576001811461597f576159ad565b7fffffffffffffffffffffffffffffffffffffffffffffffffffffffffffffff008516838a01528284151560051b8a010195506159ad565b8b6000528660002060005b858110156159a55781548b820186015290830190880161598a565b8a0184019650505b505050505083810360408501526159c48187614d87565b9250505061093660608301846155ca56fe416464726573733a206c6f772d6c6576656c2064656c65676174652063616c6c206661696c6564",
    "linkReferences": {}
  },
  "methodIdentifiers": {
    "accountImplementation()": "11464fbe",
    "createAccount(string,bytes,uint256[2],uint256)": "a4164f86",
    "createAccount(string,uint256)": "6586ace6",
    "getAddress(string,uint256)": "21ec1253"
  },
  "id": 68
}