{
  "abi": [
    {
      "inputs": [
        {
          "internalType": "contract IEntryPoint",
          "name": "anEntryPoint",
          "type": "address"
        },
        {
          "internalType": "address",
          "name": "_webauthnVerifier",
          "type": "address"
        },
        {
          "internalType": "address",
          "name": "_loginService",
          "type": "address"
        },
        {
          "internalType": "address",
          "name": "_factory",
          "type": "address"
        }
      ],
      "stateMutability": "nonpayable",
      "type": "constructor"
    },
    {
      "anonymous": false,
      "inputs": [
        {
          "indexed": false,
          "internalType": "address",
          "name": "previousAdmin",
          "type": "address"
        },
        {
          "indexed": false,
          "internalType": "address",
          "name": "newAdmin",
          "type": "address"
        }
      ],
      "name": "AdminChanged",
      "type": "event"
    },
    {
      "anonymous": false,
      "inputs": [
        {
          "indexed": true,
          "internalType": "address",
          "name": "beacon",
          "type": "address"
        }
      ],
      "name": "BeaconUpgraded",
      "type": "event"
    },
    {
      "anonymous": false,
      "inputs": [
        {
          "indexed": false,
          "internalType": "address",
          "name": "newGuardian",
          "type": "address"
        }
      ],
      "name": "GuardianAdded",
      "type": "event"
    },
    {
      "anonymous": false,
      "inputs": [
        {
          "indexed": false,
          "internalType": "address",
          "name": "removedGuardian",
          "type": "address"
        }
      ],
      "name": "GuardianRemoved",
      "type": "event"
    },
    {
      "anonymous": false,
      "inputs": [
        {
          "indexed": false,
          "internalType": "uint8",
          "name": "version",
          "type": "uint8"
        }
      ],
      "name": "Initialized",
      "type": "event"
    },
    {
      "anonymous": false,
      "inputs": [
        {
          "indexed": false,
          "internalType": "address",
          "name": "newOwner",
          "type": "address"
        }
      ],
      "name": "OwnerAdded",
      "type": "event"
    },
    {
      "anonymous": false,
      "inputs": [
        {
          "indexed": false,
          "internalType": "address",
          "name": "removedOwner",
          "type": "address"
        }
      ],
      "name": "OwnerRemoved",
      "type": "event"
    },
    {
      "anonymous": false,
      "inputs": [
        {
          "indexed": false,
          "internalType": "uint256",
          "name": "proposalId",
          "type": "uint256"
        },
        {
          "indexed": false,
          "internalType": "address",
          "name": "discardedBy",
          "type": "address"
        }
      ],
      "name": "ProposalDiscarded",
      "type": "event"
    },
    {
      "anonymous": false,
      "inputs": [
        {
          "indexed": false,
          "internalType": "uint256",
          "name": "proposalId",
          "type": "uint256"
        },
        {
          "indexed": false,
          "internalType": "bytes",
          "name": "newSignerProposed",
          "type": "bytes"
        },
        {
          "indexed": false,
          "internalType": "address",
          "name": "proposer",
          "type": "address"
        }
      ],
      "name": "ProposalSubmitted",
      "type": "event"
    },
    {
      "anonymous": false,
      "inputs": [
        {
          "indexed": false,
          "internalType": "uint256",
          "name": "newTimelock",
          "type": "uint256"
        }
      ],
      "name": "ProposalTimelockChanged",
      "type": "event"
    },
    {
      "anonymous": false,
      "inputs": [
        {
          "indexed": false,
          "internalType": "uint256",
          "name": "proposalId",
          "type": "uint256"
        },
        {
          "indexed": false,
          "internalType": "bytes",
          "name": "newSignerProposed",
          "type": "bytes"
        },
        {
          "indexed": false,
          "internalType": "uint256",
          "name": "approvalCount",
          "type": "uint256"
        }
      ],
      "name": "QuorumNotReached",
      "type": "event"
    },
    {
      "anonymous": false,
      "inputs": [
        {
          "indexed": false,
          "internalType": "contract IEntryPoint",
          "name": "entryPoint",
          "type": "address"
        },
        {
          "components": [
            {
              "internalType": "address",
              "name": "sender",
              "type": "address"
            },
            {
              "internalType": "uint256",
              "name": "nonce",
              "type": "uint256"
            },
            {
              "internalType": "bytes",
              "name": "initCode",
              "type": "bytes"
            },
            {
              "internalType": "bytes",
              "name": "callData",
              "type": "bytes"
            },
            {
              "internalType": "uint256",
              "name": "callGasLimit",
              "type": "uint256"
            },
            {
              "internalType": "uint256",
              "name": "verificationGasLimit",
              "type": "uint256"
            },
            {
              "internalType": "uint256",
              "name": "preVerificationGas",
              "type": "uint256"
            },
            {
              "internalType": "uint256",
              "name": "maxFeePerGas",
              "type": "uint256"
            },
            {
              "internalType": "uint256",
              "name": "maxPriorityFeePerGas",
              "type": "uint256"
            },
            {
              "internalType": "bytes",
              "name": "paymasterAndData",
              "type": "bytes"
            },
            {
              "internalType": "bytes",
              "name": "signature",
              "type": "bytes"
            }
          ],
          "indexed": false,
          "internalType": "struct UserOperation",
          "name": "userOp",
          "type": "tuple"
        },
        {
          "indexed": false,
          "internalType": "bytes32",
          "name": "userOpHash",
          "type": "bytes32"
        }
      ],
      "name": "SignatureValidation",
      "type": "event"
    },
    {
      "anonymous": false,
      "inputs": [
        {
          "indexed": true,
          "internalType": "address",
          "name": "implementation",
          "type": "address"
        }
      ],
      "name": "Upgraded",
      "type": "event"
    },
    {
      "anonymous": false,
      "inputs": [
        {
          "indexed": true,
          "internalType": "contract IEntryPoint",
          "name": "entryPoint",
          "type": "address"
        },
        {
          "indexed": true,
          "internalType": "string",
          "name": "login",
          "type": "string"
        }
      ],
      "name": "WebAuthnAccountInitialized",
      "type": "event"
    },
    {
      "inputs": [
        {
          "internalType": "bytes",
          "name": "",
          "type": "bytes"
        },
        {
          "internalType": "uint256",
          "name": "",
          "type": "uint256"
        }
      ],
      "name": "_signers",
      "outputs": [
        {
          "internalType": "uint256",
          "name": "",
          "type": "uint256"
        }
      ],
      "stateMutability": "view",
      "type": "function"
    },
    {
      "inputs": [],
      "name": "_signersCount",
      "outputs": [
        {
          "internalType": "uint8",
          "name": "",
          "type": "uint8"
        }
      ],
      "stateMutability": "view",
      "type": "function"
    },
    {
      "inputs": [],
      "name": "addDeposit",
      "outputs": [],
      "stateMutability": "payable",
      "type": "function"
    },
    {
      "inputs": [
        {
          "internalType": "bytes",
          "name": "credId",
          "type": "bytes"
        },
        {
          "internalType": "uint256[2]",
          "name": "pubKeyCoordinates",
          "type": "uint256[2]"
        }
      ],
      "name": "addFirstSigner",
      "outputs": [],
      "stateMutability": "nonpayable",
      "type": "function"
    },
    {
      "inputs": [
        {
          "internalType": "address",
          "name": "_newOwner",
          "type": "address"
        }
      ],
      "name": "addOwner",
      "outputs": [],
      "stateMutability": "nonpayable",
      "type": "function"
    },
    {
      "inputs": [
        {
          "internalType": "bytes",
          "name": "credId",
          "type": "bytes"
        },
        {
          "internalType": "uint256[2]",
          "name": "pubKeyCoordinates",
          "type": "uint256[2]"
        }
      ],
      "name": "addSigner",
      "outputs": [],
      "stateMutability": "nonpayable",
      "type": "function"
    },
    {
      "inputs": [],
      "name": "entryPoint",
      "outputs": [
        {
          "internalType": "contract IEntryPoint",
          "name": "",
          "type": "address"
        }
      ],
      "stateMutability": "view",
      "type": "function"
    },
    {
      "inputs": [
        {
          "internalType": "address",
          "name": "dest",
          "type": "address"
        },
        {
          "internalType": "uint256",
          "name": "value",
          "type": "uint256"
        },
        {
          "internalType": "bytes",
          "name": "func",
          "type": "bytes"
        }
      ],
      "name": "execute",
      "outputs": [],
      "stateMutability": "nonpayable",
      "type": "function"
    },
    {
      "inputs": [
        {
          "internalType": "address[]",
          "name": "dest",
          "type": "address[]"
        },
        {
          "internalType": "uint256[]",
          "name": "value",
          "type": "uint256[]"
        },
        {
          "internalType": "bytes[]",
          "name": "func",
          "type": "bytes[]"
        }
      ],
      "name": "executeBatch",
      "outputs": [],
      "stateMutability": "nonpayable",
      "type": "function"
    },
    {
      "inputs": [],
      "name": "factory",
      "outputs": [
        {
          "internalType": "address",
          "name": "",
          "type": "address"
        }
      ],
      "stateMutability": "view",
      "type": "function"
    },
    {
      "inputs": [],
      "name": "getDeposit",
      "outputs": [
        {
          "internalType": "uint256",
          "name": "",
          "type": "uint256"
        }
      ],
      "stateMutability": "view",
      "type": "function"
    },
    {
      "inputs": [],
      "name": "getNonce",
      "outputs": [
        {
          "internalType": "uint256",
          "name": "",
          "type": "uint256"
        }
      ],
      "stateMutability": "view",
      "type": "function"
    },
    {
      "inputs": [],
      "name": "guardianCount",
      "outputs": [
        {
          "internalType": "uint256",
          "name": "",
          "type": "uint256"
        }
      ],
      "stateMutability": "view",
      "type": "function"
    },
    {
      "inputs": [
        {
          "internalType": "string",
          "name": "login",
          "type": "string"
        }
      ],
      "name": "initialize",
      "outputs": [],
      "stateMutability": "nonpayable",
      "type": "function"
    },
    {
      "inputs": [
        {
          "internalType": "address",
          "name": "_address",
          "type": "address"
        }
      ],
      "name": "isOwner",
      "outputs": [
        {
          "internalType": "bool",
          "name": "",
          "type": "bool"
        }
      ],
      "stateMutability": "view",
      "type": "function"
    },
    {
      "inputs": [],
      "name": "loginService",
      "outputs": [
        {
          "internalType": "address",
          "name": "",
          "type": "address"
        }
      ],
      "stateMutability": "view",
      "type": "function"
    },
    {
      "inputs": [
        {
          "internalType": "address",
          "name": "",
          "type": "address"
        },
        {
          "internalType": "address",
          "name": "",
          "type": "address"
        },
        {
          "internalType": "uint256[]",
          "name": "",
          "type": "uint256[]"
        },
        {
          "internalType": "uint256[]",
          "name": "",
          "type": "uint256[]"
        },
        {
          "internalType": "bytes",
          "name": "",
          "type": "bytes"
        }
      ],
      "name": "onERC1155BatchReceived",
      "outputs": [
        {
          "internalType": "bytes4",
          "name": "",
          "type": "bytes4"
        }
      ],
      "stateMutability": "pure",
      "type": "function"
    },
    {
      "inputs": [
        {
          "internalType": "address",
          "name": "",
          "type": "address"
        },
        {
          "internalType": "address",
          "name": "",
          "type": "address"
        },
        {
          "internalType": "uint256",
          "name": "",
          "type": "uint256"
        },
        {
          "internalType": "uint256",
          "name": "",
          "type": "uint256"
        },
        {
          "internalType": "bytes",
          "name": "",
          "type": "bytes"
        }
      ],
      "name": "onERC1155Received",
      "outputs": [
        {
          "internalType": "bytes4",
          "name": "",
          "type": "bytes4"
        }
      ],
      "stateMutability": "pure",
      "type": "function"
    },
    {
      "inputs": [
        {
          "internalType": "address",
          "name": "",
          "type": "address"
        },
        {
          "internalType": "address",
          "name": "",
          "type": "address"
        },
        {
          "internalType": "uint256",
          "name": "",
          "type": "uint256"
        },
        {
          "internalType": "bytes",
          "name": "",
          "type": "bytes"
        }
      ],
      "name": "onERC721Received",
      "outputs": [
        {
          "internalType": "bytes4",
          "name": "",
          "type": "bytes4"
        }
      ],
      "stateMutability": "pure",
      "type": "function"
    },
    {
      "inputs": [],
      "name": "ownerCount",
      "outputs": [
        {
          "internalType": "uint256",
          "name": "",
          "type": "uint256"
        }
      ],
      "stateMutability": "view",
      "type": "function"
    },
    {
      "inputs": [
        {
          "internalType": "address",
          "name": "tokenAddr",
          "type": "address"
        },
        {
          "internalType": "uint256",
          "name": "amount",
          "type": "uint256"
        },
        {
          "internalType": "address",
          "name": "customerAddr",
          "type": "address"
        },
        {
          "internalType": "address",
          "name": "merchantAddr",
          "type": "address"
        }
      ],
      "name": "pay",
      "outputs": [],
      "stateMutability": "nonpayable",
      "type": "function"
    },
    {
      "inputs": [],
      "name": "proxiableUUID",
      "outputs": [
        {
          "internalType": "bytes32",
          "name": "",
          "type": "bytes32"
        }
      ],
      "stateMutability": "view",
      "type": "function"
    },
    {
      "inputs": [
        {
          "internalType": "address",
          "name": "token",
          "type": "address"
        },
        {
          "internalType": "uint256",
          "name": "allowance",
          "type": "uint256"
        }
      ],
      "name": "setDailyAllowance",
      "outputs": [],
      "stateMutability": "nonpayable",
      "type": "function"
    },
    {
      "inputs": [
        {
          "internalType": "bytes",
          "name": "toSlice",
          "type": "bytes"
        },
        {
          "internalType": "uint256",
          "name": "start",
          "type": "uint256"
        },
        {
          "internalType": "uint256",
          "name": "end",
          "type": "uint256"
        }
      ],
      "name": "sliceBytes",
      "outputs": [
        {
          "internalType": "bytes",
          "name": "",
          "type": "bytes"
        }
      ],
      "stateMutability": "pure",
      "type": "function"
    },
    {
      "inputs": [
        {
          "internalType": "bytes4",
          "name": "interfaceId",
          "type": "bytes4"
        }
      ],
      "name": "supportsInterface",
      "outputs": [
        {
          "internalType": "bool",
          "name": "",
          "type": "bool"
        }
      ],
      "stateMutability": "view",
      "type": "function"
    },
    {
      "inputs": [
        {
          "internalType": "address",
          "name": "",
          "type": "address"
        },
        {
          "internalType": "address",
          "name": "",
          "type": "address"
        },
        {
          "internalType": "address",
          "name": "",
          "type": "address"
        },
        {
          "internalType": "uint256",
          "name": "",
          "type": "uint256"
        },
        {
          "internalType": "bytes",
          "name": "",
          "type": "bytes"
        },
        {
          "internalType": "bytes",
          "name": "",
          "type": "bytes"
        }
      ],
      "name": "tokensReceived",
      "outputs": [],
      "stateMutability": "pure",
      "type": "function"
    },
    {
      "inputs": [
        {
          "internalType": "address",
          "name": "newImplementation",
          "type": "address"
        }
      ],
      "name": "upgradeTo",
      "outputs": [],
      "stateMutability": "nonpayable",
      "type": "function"
    },
    {
      "inputs": [
        {
          "internalType": "address",
          "name": "newImplementation",
          "type": "address"
        },
        {
          "internalType": "bytes",
          "name": "data",
          "type": "bytes"
        }
      ],
      "name": "upgradeToAndCall",
      "outputs": [],
      "stateMutability": "payable",
      "type": "function"
    },
    {
      "inputs": [
        {
          "components": [
            {
              "internalType": "address",
              "name": "sender",
              "type": "address"
            },
            {
              "internalType": "uint256",
              "name": "nonce",
              "type": "uint256"
            },
            {
              "internalType": "bytes",
              "name": "initCode",
              "type": "bytes"
            },
            {
              "internalType": "bytes",
              "name": "callData",
              "type": "bytes"
            },
            {
              "internalType": "uint256",
              "name": "callGasLimit",
              "type": "uint256"
            },
            {
              "internalType": "uint256",
              "name": "verificationGasLimit",
              "type": "uint256"
            },
            {
              "internalType": "uint256",
              "name": "preVerificationGas",
              "type": "uint256"
            },
            {
              "internalType": "uint256",
              "name": "maxFeePerGas",
              "type": "uint256"
            },
            {
              "internalType": "uint256",
              "name": "maxPriorityFeePerGas",
              "type": "uint256"
            },
            {
              "internalType": "bytes",
              "name": "paymasterAndData",
              "type": "bytes"
            },
            {
              "internalType": "bytes",
              "name": "signature",
              "type": "bytes"
            }
          ],
          "internalType": "struct UserOperation",
          "name": "userOp",
          "type": "tuple"
        },
        {
          "internalType": "bytes32",
          "name": "userOpHash",
          "type": "bytes32"
        },
        {
          "internalType": "uint256",
          "name": "missingAccountFunds",
          "type": "uint256"
        }
      ],
      "name": "validateUserOp",
      "outputs": [
        {
          "internalType": "uint256",
          "name": "validationData",
          "type": "uint256"
        }
      ],
      "stateMutability": "nonpayable",
      "type": "function"
    },
    {
      "inputs": [],
      "name": "webauthnVerifier",
      "outputs": [
        {
          "internalType": "address",
          "name": "",
          "type": "address"
        }
      ],
      "stateMutability": "view",
      "type": "function"
    },
    {
      "inputs": [
        {
          "internalType": "address payable",
          "name": "withdrawAddress",
          "type": "address"
        },
        {
          "internalType": "uint256",
          "name": "amount",
          "type": "uint256"
        }
      ],
      "name": "withdrawDepositTo",
      "outputs": [],
      "stateMutability": "nonpayable",
      "type": "function"
    },
    {
      "stateMutability": "payable",
      "type": "receive"
    }
  ],
  "bytecode": {
    "object": "0x610120604052306080523480156200001657600080fd5b5060405162004c8438038062004c84833981016040819052620000399162000147565b6001600160a01b038085166101005283811660a05282811660c052811660e052620000636200006d565b50505050620001af565b600054610100900460ff1615620000da5760405162461bcd60e51b815260206004820152602760248201527f496e697469616c697a61626c653a20636f6e747261637420697320696e697469604482015266616c697a696e6760c81b606482015260840160405180910390fd5b60005460ff908116146200012c576000805460ff191660ff9081179091556040519081527f7f26b83ff96e1f2b6a682f133852f6798a09c465da95921460cefb38474024989060200160405180910390a15b565b6001600160a01b03811681146200014457600080fd5b50565b600080600080608085870312156200015e57600080fd5b84516200016b816200012e565b60208601519094506200017e816200012e565b604086015190935062000191816200012e565b6060860151909250620001a4816200012e565b939692955090935050565b60805160a05160c05160e05161010051614a20620002646000396000818161053901528181610bd101528181610cfa0152818161171e015281816117dc01528181611d150152818161209f01526123ff0152600081816105c401526124620152600081816103c901526131650152600081816102ca01528181611e18015281816129fd0152612c930152600081816107fb015281816108b001528181610db601528181610e660152610fb40152614a206000f3fe6080604052600436106101db5760003560e01c806354387ad711610102578063bc197c8111610095578063d2a57ad111610064578063d2a57ad1146105fb578063f23a6e611461061b578063f62d188814610661578063ff69191d1461068157600080fd5b8063bc197c811461057d578063c399ec881461059d578063c45a0155146105b2578063d087d288146105e657600080fd5b80639f070142116100d15780639f070142146104dd578063a5e0e1981461050a578063b0d691fe1461052a578063b61d27f61461055d57600080fd5b806354387ad71461045b5780635a20d41c1461047157806366563614146104915780637065cb48146104bd57600080fd5b80633659cfe61161017a5780634a58db19116101495780634a58db191461040b5780634d44560d146104135780634f1ef2861461043357806352d1902d1461044657600080fd5b80633659cfe6146103775780633a871cdd146103975780634640fc4d146103b757806347e1da2a146103eb57600080fd5b8063150b7a02116101b6578063150b7a02146102675780631c35b2f8146102b85780632f54bf6e14610311578063312f2f151461035757600080fd5b806223de29146101e757806301ffc9a71461020e5780630db026221461024357600080fd5b366101e257005b600080fd5b3480156101f357600080fd5b5061020c610202366004613791565b5050505050505050565b005b34801561021a57600080fd5b5061022e610229366004613842565b6106a1565b60405190151581526020015b60405180910390f35b34801561024f57600080fd5b5061025960015481565b60405190815260200161023a565b34801561027357600080fd5b50610287610282366004613884565b610786565b6040517fffffffff00000000000000000000000000000000000000000000000000000000909116815260200161023a565b3480156102c457600080fd5b506102ec7f000000000000000000000000000000000000000000000000000000000000000081565b60405173ffffffffffffffffffffffffffffffffffffffff909116815260200161023a565b34801561031d57600080fd5b5061022e61032c3660046138f7565b73ffffffffffffffffffffffffffffffffffffffff1660009081526003602052604090205460ff1690565b34801561036357600080fd5b50610259610372366004613a2e565b6107b1565b34801561038357600080fd5b5061020c6103923660046138f7565b6107e4565b3480156103a357600080fd5b506102596103b2366004613a73565b6109f3565b3480156103c357600080fd5b506102ec7f000000000000000000000000000000000000000000000000000000000000000081565b3480156103f757600080fd5b5061020c610406366004613b0c565b610a19565b61020c610bcf565b34801561041f57600080fd5b5061020c61042e366004613ba6565b610c75565b61020c610441366004613bd2565b610d9f565b34801561045257600080fd5b50610259610f9a565b34801561046757600080fd5b5061025960025481565b34801561047d57600080fd5b5061020c61048c366004613ba6565b611086565b34801561049d57600080fd5b506004546104ab9060ff1681565b60405160ff909116815260200161023a565b3480156104c957600080fd5b5061020c6104d83660046138f7565b611147565b3480156104e957600080fd5b506104fd6104f8366004613c22565b6111d3565b60405161023a9190613ce1565b34801561051657600080fd5b5061020c610525366004613cf4565b611221565b34801561053657600080fd5b507f00000000000000000000000000000000000000000000000000000000000000006102ec565b34801561056957600080fd5b5061020c610578366004613d47565b61165b565b34801561058957600080fd5b50610287610598366004613da3565b6116aa565b3480156105a957600080fd5b506102596116d8565b3480156105be57600080fd5b506102ec7f000000000000000000000000000000000000000000000000000000000000000081565b3480156105f257600080fd5b5061025961178f565b34801561060757600080fd5b5061020c610616366004613e41565b61180b565b34801561062757600080fd5b50610287610636366004613e9c565b7ff23a6e61000000000000000000000000000000000000000000000000000000009695505050505050565b34801561066d57600080fd5b5061020c61067c366004613f06565b6118f4565b34801561068d57600080fd5b5061020c61069c366004613e41565b611a89565b60007fffffffff0000000000000000000000000000000000000000000000000000000082167f150b7a0200000000000000000000000000000000000000000000000000000000148061073457507fffffffff0000000000000000000000000000000000000000000000000000000082167f4e2312e000000000000000000000000000000000000000000000000000000000145b8061078057507fffffffff0000000000000000000000000000000000000000000000000000000082167f01ffc9a700000000000000000000000000000000000000000000000000000000145b92915050565b7f150b7a02000000000000000000000000000000000000000000000000000000005b95945050505050565b8151602081840181018051600582529282019185019190912091905281600281106107db57600080fd5b01549150829050565b73ffffffffffffffffffffffffffffffffffffffff7f00000000000000000000000000000000000000000000000000000000000000001630036108ae576040517f08c379a000000000000000000000000000000000000000000000000000000000815260206004820152602c60248201527f46756e6374696f6e206d7573742062652063616c6c6564207468726f7567682060448201527f64656c656761746563616c6c000000000000000000000000000000000000000060648201526084015b60405180910390fd5b7f000000000000000000000000000000000000000000000000000000000000000073ffffffffffffffffffffffffffffffffffffffff166109237f360894a13ba1a3210667c828492db98dca3e2076cc3735a920a3ca505d382bbc5473ffffffffffffffffffffffffffffffffffffffff1690565b73ffffffffffffffffffffffffffffffffffffffff16146109c6576040517f08c379a000000000000000000000000000000000000000000000000000000000815260206004820152602c60248201527f46756e6374696f6e206d7573742062652063616c6c6564207468726f7567682060448201527f6163746976652070726f7879000000000000000000000000000000000000000060648201526084016108a5565b6109d4336000526003602052565b604080516000808252602082019092526109f091839190611afe565b50565b60006109fd611cfd565b610a078484611d9e565b9050610a128261201c565b9392505050565b610a21612087565b8481148015610a375750821580610a3757508281145b610a9d576040517f08c379a000000000000000000000000000000000000000000000000000000000815260206004820152601260248201527f77726f6e67206172726179206c656e677468000000000000000000000000000060448201526064016108a5565b6000839003610b535760005b85811015610b4d57610b3b878783818110610ac657610ac6613f48565b9050602002016020810190610adb91906138f7565b6000858585818110610aef57610aef613f48565b9050602002810190610b019190613f77565b8080601f01602080910402602001604051908101604052809392919081815260200183838082843760009201919091525061213092505050565b80610b458161400b565b915050610aa9565b50610bc7565b60005b85811015610bc557610bb3878783818110610b7357610b73613f48565b9050602002016020810190610b8891906138f7565b868684818110610b9a57610b9a613f48565b90506020020135858585818110610aef57610aef613f48565b80610bbd8161400b565b915050610b56565b505b505050505050565b7f00000000000000000000000000000000000000000000000000000000000000006040517fb760faf900000000000000000000000000000000000000000000000000000000815230600482015273ffffffffffffffffffffffffffffffffffffffff919091169063b760faf99034906024016000604051808303818588803b158015610c5a57600080fd5b505af1158015610c6e573d6000803e3d6000fd5b5050505050565b3360009081526003602052604090205460ff1680610c9257503330145b610cf8576040517f08c379a000000000000000000000000000000000000000000000000000000000815260206004820152601060248201527f41434c3a3a206f6e6c79206f776e65720000000000000000000000000000000060448201526064016108a5565b7f00000000000000000000000000000000000000000000000000000000000000006040517f205c287800000000000000000000000000000000000000000000000000000000815273ffffffffffffffffffffffffffffffffffffffff848116600483015260248201849052919091169063205c287890604401600060405180830381600087803b158015610d8b57600080fd5b505af1158015610bc7573d6000803e3d6000fd5b73ffffffffffffffffffffffffffffffffffffffff7f0000000000000000000000000000000000000000000000000000000000000000163003610e64576040517f08c379a000000000000000000000000000000000000000000000000000000000815260206004820152602c60248201527f46756e6374696f6e206d7573742062652063616c6c6564207468726f7567682060448201527f64656c656761746563616c6c000000000000000000000000000000000000000060648201526084016108a5565b7f000000000000000000000000000000000000000000000000000000000000000073ffffffffffffffffffffffffffffffffffffffff16610ed97f360894a13ba1a3210667c828492db98dca3e2076cc3735a920a3ca505d382bbc5473ffffffffffffffffffffffffffffffffffffffff1690565b73ffffffffffffffffffffffffffffffffffffffff1614610f7c576040517f08c379a000000000000000000000000000000000000000000000000000000000815260206004820152602c60248201527f46756e6374696f6e206d7573742062652063616c6c6564207468726f7567682060448201527f6163746976652070726f7879000000000000000000000000000000000000000060648201526084016108a5565b610f8a336000526003602052565b610f9682826001611afe565b5050565b60003073ffffffffffffffffffffffffffffffffffffffff7f00000000000000000000000000000000000000000000000000000000000000001614611061576040517f08c379a000000000000000000000000000000000000000000000000000000000815260206004820152603860248201527f555550535570677261646561626c653a206d757374206e6f742062652063616c60448201527f6c6564207468726f7567682064656c656761746563616c6c000000000000000060648201526084016108a5565b507f360894a13ba1a3210667c828492db98dca3e2076cc3735a920a3ca505d382bbc90565b3360009081526003602052604090205460ff16806110a357503330145b611109576040517f08c379a000000000000000000000000000000000000000000000000000000000815260206004820152601060248201527f41434c3a3a206f6e6c79206f776e65720000000000000000000000000000000060448201526064016108a5565b6111166201518042614043565b6006556000600781905573ffffffffffffffffffffffffffffffffffffffff90921682526008602052604090912055565b3360009081526003602052604090205460ff168061116457503330145b6111ca576040517f08c379a000000000000000000000000000000000000000000000000000000000815260206004820152601060248201527f41434c3a3a206f6e6c79206f776e65720000000000000000000000000000000060448201526064016108a5565b6109f0816121ad565b60606111e182848688614056565b8080601f0160208091040260200160405190810160405280939291908181526020018383808284376000920191909152509293505050505b949350505050565b3360009081526003602052604090205460ff168061123e57503330145b6112a4576040517f08c379a000000000000000000000000000000000000000000000000000000000815260206004820152601060248201527f41434c3a3a206f6e6c79206f776e65720000000000000000000000000000000060448201526064016108a5565b600084905060008173ffffffffffffffffffffffffffffffffffffffff1663313ce5676040518163ffffffff1660e01b8152600401602060405180830381865afa1580156112f6573d6000803e3d6000fd5b505050506040513d601f19601f8201168201806040525081019061131a9190614080565b61132590600a6141c3565b61133786670de0b6b3a76400006141d2565b61134191906141e9565b90506000600654426113539190614043565b90506201518081106114d75773ffffffffffffffffffffffffffffffffffffffff8716600090815260086020526040902054821115611413576040517f08c379a0000000000000000000000000000000000000000000000000000000008152602060048201526024808201527f657870656e6469747572652069732061626f7665206461696c7920616c6c6f7760448201527f616e63650000000000000000000000000000000000000000000000000000000060648201526084016108a5565b60006007556040517f23b872dd00000000000000000000000000000000000000000000000000000000815273ffffffffffffffffffffffffffffffffffffffff86811660048301528581166024830152604482018890528416906323b872dd906064016020604051808303816000875af1158015611495573d6000803e3d6000fd5b505050506040513d601f19601f820116820180604052508101906114b99190614224565b5081600760008282546114cc9190614246565b90915550610bc59050565b73ffffffffffffffffffffffffffffffffffffffff871660009081526008602052604090205460075461150b908490614246565b1115611599576040517f08c379a000000000000000000000000000000000000000000000000000000000815260206004820152603760248201527f657870656e64697475726520776f756c642062652074616b6520796f7520616260448201527f6f766520746865206461696c7920616c6c6f77616e636500000000000000000060648201526084016108a5565b6040517f23b872dd00000000000000000000000000000000000000000000000000000000815273ffffffffffffffffffffffffffffffffffffffff86811660048301528581166024830152604482018890528416906323b872dd906064016020604051808303816000875af1158015611616573d6000803e3d6000fd5b505050506040513d601f19601f8201168201806040525081019061163a9190614224565b50816007600082825461164d9190614246565b909155505050505050505050565b611663612087565b6116a4848484848080601f01602080910402602001604051908101604052809392919081815260200183838082843760009201919091525061213092505050565b50505050565b7fbc197c81000000000000000000000000000000000000000000000000000000005b98975050505050505050565b6040517f70a0823100000000000000000000000000000000000000000000000000000000815230600482015260009073ffffffffffffffffffffffffffffffffffffffff7f000000000000000000000000000000000000000000000000000000000000000016906370a08231906024015b602060405180830381865afa158015611766573d6000803e3d6000fd5b505050506040513d601f19601f8201168201806040525081019061178a9190614259565b905090565b6040517f35567e1a0000000000000000000000000000000000000000000000000000000081523060048201526000602482018190529073ffffffffffffffffffffffffffffffffffffffff7f000000000000000000000000000000000000000000000000000000000000000016906335567e1a90604401611749565b3360009081526003602052604090205460ff168061182857503330145b61188e576040517f08c379a000000000000000000000000000000000000000000000000000000000815260206004820152601060248201527f41434c3a3a206f6e6c79206f776e65720000000000000000000000000000000060448201526064016108a5565b6118ef83838080601f0160208091040260200160405190810160405280939291908181526020018383808284376000920191909152505060408051808201825292508591506002908390839080828437600092019190915250612365915050565b505050565b600054610100900460ff16158080156119145750600054600160ff909116105b8061192e5750303b15801561192e575060005460ff166001145b6119ba576040517f08c379a000000000000000000000000000000000000000000000000000000000815260206004820152602e60248201527f496e697469616c697a61626c653a20636f6e747261637420697320616c72656160448201527f647920696e697469616c697a656400000000000000000000000000000000000060648201526084016108a5565b600080547fffffffffffffffffffffffffffffffffffffffffffffffffffffffffffffff001660011790558015611a1857600080547fffffffffffffffffffffffffffffffffffffffffffffffffffffffffffff00ff166101001790555b611a2283836123c1565b80156118ef57600080547fffffffffffffffffffffffffffffffffffffffffffffffffffffffffffff00ff169055604051600181527f7f26b83ff96e1f2b6a682f133852f6798a09c465da95921460cefb38474024989060200160405180910390a1505050565b611a9161244a565b60045460ff161561188e576040517f08c379a000000000000000000000000000000000000000000000000000000000815260206004820152601860248201527f6669727374207369676e657220616c726561647920736574000000000000000060448201526064016108a5565b7f4910fdfa16fed3260ed0e7147f7cc6da11a60208b5b9406d12a635614ffd91435460ff1615611b31576118ef836124e9565b8273ffffffffffffffffffffffffffffffffffffffff166352d1902d6040518163ffffffff1660e01b8152600401602060405180830381865afa925050508015611bb6575060408051601f3d9081017fffffffffffffffffffffffffffffffffffffffffffffffffffffffffffffffe0168201909252611bb391810190614259565b60015b611c42576040517f08c379a000000000000000000000000000000000000000000000000000000000815260206004820152602e60248201527f45524331393637557067726164653a206e657720696d706c656d656e7461746960448201527f6f6e206973206e6f74205555505300000000000000000000000000000000000060648201526084016108a5565b7f360894a13ba1a3210667c828492db98dca3e2076cc3735a920a3ca505d382bbc8114611cf1576040517f08c379a000000000000000000000000000000000000000000000000000000000815260206004820152602960248201527f45524331393637557067726164653a20756e737570706f727465642070726f7860448201527f6961626c6555554944000000000000000000000000000000000000000000000060648201526084016108a5565b506118ef8383836125f3565b3373ffffffffffffffffffffffffffffffffffffffff7f00000000000000000000000000000000000000000000000000000000000000001614611d9c576040517f08c379a000000000000000000000000000000000000000000000000000000000815260206004820152601c60248201527f6163636f756e743a206e6f742066726f6d20456e747279506f696e740000000060448201526064016108a5565b565b60008080611db0610140860186613f77565b905011611dbe576000611de8565b611dcc610140850185613f77565b6000818110611ddd57611ddd613f48565b919091013560f81c90505b6003811115611df957611df9614272565b90506000816003811115611e0f57611e0f614272565b03611edd5760007f000000000000000000000000000000000000000000000000000000000000000073ffffffffffffffffffffffffffffffffffffffff1662a7029b6040518163ffffffff1660e01b8152600401600060405180830381865afa158015611e80573d6000803e3d6000fd5b505050506040513d6000823e601f3d9081017fffffffffffffffffffffffffffffffffffffffffffffffffffffffffffffffe0168201604052611ec691908101906142f1565b9050611ed481856001612618565b92505050610780565b6001816003811115611ef157611ef1614272565b03611f4b57611f43611f07610140860186613f77565b8080601f01602080910402602001604051908101604052809392919081815260200183838082843760009201829052508893509150612b359050565b915050610780565b6002816003811115611f5f57611f5f614272565b03611faf57611f43611f75610140860186613f77565b8080601f016020809104026020016040519081016040528093929190818152602001838380828437600092019190915250612dc792505050565b6003816003811115611fc357611fc3614272565b0361201557611f43611fd9610140860186613f77565b8080601f016020809104026020016040519081016040528093929190818152602001838380828437600092018290525088935091506126189050565b5092915050565b80156109f05760405160009033907fffffffffffffffffffffffffffffffffffffffffffffffffffffffffffffffff90849084818181858888f193505050503d8060008114610c6e576040519150601f19603f3d011682016040523d82523d6000602084013e610c6e565b3373ffffffffffffffffffffffffffffffffffffffff7f00000000000000000000000000000000000000000000000000000000000000001614806120ca57503330145b611d9c576040517f08c379a000000000000000000000000000000000000000000000000000000000815260206004820181905260248201527f6163636f756e743a206e6f74204f776e6572206f7220456e747279506f696e7460448201526064016108a5565b6000808473ffffffffffffffffffffffffffffffffffffffff1684846040516121599190614326565b60006040518083038185875af1925050503d8060008114612196576040519150601f19603f3d011682016040523d82523d6000602084013e61219b565b606091505b509150915081610c6e57805160208201fd5b73ffffffffffffffffffffffffffffffffffffffff811661222a576040517f08c379a000000000000000000000000000000000000000000000000000000000815260206004820152601260248201527f41434c3a3a207a65726f2061646472657373000000000000000000000000000060448201526064016108a5565b73ffffffffffffffffffffffffffffffffffffffff811660009081526003602052604090205460ff16156122ba576040517f08c379a000000000000000000000000000000000000000000000000000000000815260206004820152601360248201527f41434c3a3a20616c7265616479206f776e65720000000000000000000000000060448201526064016108a5565b60405173ffffffffffffffffffffffffffffffffffffffff821681527f994a936646fe87ffe4f1e469d3d6aa417d6b855598397f323de5b449f765f0c39060200160405180910390a173ffffffffffffffffffffffffffffffffffffffff8116600090815260036020526040902080547fffffffffffffffffffffffffffffffffffffffffffffffffffffffffffffff00166001908117909155805461235f91614246565b60015550565b806005836040516123769190614326565b9081526040519081900360200190206123909160026136bc565b506004805460ff169060006123a483614342565b91906101000a81548160ff021916908360ff160217905550505050565b60096123ce8284836143fa565b5060096040516123de9190614514565b6040519081900381209073ffffffffffffffffffffffffffffffffffffffff7f000000000000000000000000000000000000000000000000000000000000000016907fcc8d54b06e49fa725f7cd31eca14c929e956281b71b4823d38fda2857c70dcd290600090a35050565b3373ffffffffffffffffffffffffffffffffffffffff7f00000000000000000000000000000000000000000000000000000000000000001614611d9c576040517f08c379a000000000000000000000000000000000000000000000000000000000815260206004820152600c60248201527f6f6e6c7920666163746f7279000000000000000000000000000000000000000060448201526064016108a5565b73ffffffffffffffffffffffffffffffffffffffff81163b61258d576040517f08c379a000000000000000000000000000000000000000000000000000000000815260206004820152602d60248201527f455243313936373a206e657720696d706c656d656e746174696f6e206973206e60448201527f6f74206120636f6e74726163740000000000000000000000000000000000000060648201526084016108a5565b7f360894a13ba1a3210667c828492db98dca3e2076cc3735a920a3ca505d382bbc80547fffffffffffffffffffffffff00000000000000000000000000000000000000001673ffffffffffffffffffffffffffffffffffffffff92909216919091179055565b6125fc83612f6b565b6000825111806126095750805b156118ef576116a48383612fb8565b600080600080600080600080600061262f8c612fdd565b985098509850985098509850985098505060008060008061264f8561301f565b9450945094509450508d6126ed576009805461266a90614361565b80601f016020809104026020016040519081016040528092919081815260200182805461269690614361565b80156126e35780601f106126b8576101008083540402835291602001916126e3565b820191906000526020600020905b8154815290600101906020018083116126c657829003601f168201915b50505050506126ef565b835b6040516020016126ff9190614326565b60405160208183030381529060405280519060200120846040516020016127269190614326565b60405160208183030381529060405280519060200120146127a3576040517f08c379a000000000000000000000000000000000000000000000000000000000815260206004820152601760248201527f696e636f7272656374206c6f67696e20666f722073696700000000000000000060448201526064016108a5565b8d156127bb576127b68383836001613054565b6127c8565b6127c88383836000613054565b50505050896127d7578a6127e0565b6127e0856145a8565b6127e9866145a8565b14612850576040517f08c379a000000000000000000000000000000000000000000000000000000000815260206004820152601f60248201527f6368616c6c656e6765202620757365724f7048617368206d69736d617463680060448201526064016108a5565b60008760368151811061286557612865613f48565b0160209081015160405160f89190911c92506000913091639f0701429161288e918d9101614326565b604080517fffffffffffffffffffffffffffffffffffffffffffffffffffffffffffffffe081840301815291905260376128c88682614246565b6040518463ffffffff1660e01b81526004016128e6939291906145ea565b600060405180830381865afa158015612903573d6000803e3d6000fd5b505050506040513d6000823e601f3d9081017fffffffffffffffffffffffffffffffffffffffffffffffffffffffffffffffe016820160405261294991908101906142f1565b905060008c6129a1576005826040516129629190614326565b9081526040805191829003602001822082820190915260028282826020028201915b8154815260200190600101908083116129845750505050506129f7565b60405180604001604052807f46bfdfbddbc22d475a21be7fb6fb597a9e7aca90a4e76ba93a19b26985c87a1581526020017fa0e41b38419d2837cf8ea557f91b638c01c12a70230724ef06825f2393a76a708152505b905060007f000000000000000000000000000000000000000000000000000000000000000073ffffffffffffffffffffffffffffffffffffffff1663e60b57048d8d8d8d8d60405180604001604052808f81526020018e81525060405180604001604052808b600060028110612a6f57612a6f613f48565b602002015181526020018b600160028110612a8c57612a8c613f48565b60200201518152506040518863ffffffff1660e01b8152600401612ab69796959493929190614632565b6020604051808303816000875af1158015612ad5573d6000803e3d6000fd5b505050506040513d601f19601f82011682018060405250810190612af99190614224565b90508d80612b05575080155b15612b1f5760019c50505050505050505050505050610a12565b5060009f9e505050505050505050505050505050565b6000806000806000806000806000612b4c8c612fdd565b985098509850985098509850985098505089612b68578a612b71565b612b71856145a8565b612b7a866145a8565b14612be1576040517f08c379a000000000000000000000000000000000000000000000000000000000815260206004820152601f60248201527f6368616c6c656e6765202620757365724f7048617368206d69736d617463680060448201526064016108a5565b60008a612c3757600582604051612bf89190614326565b9081526040805191829003602001822082820190915260028282826020028201915b815481526020019060010190808311612c1a575050505050612c8d565b60405180604001604052807f46bfdfbddbc22d475a21be7fb6fb597a9e7aca90a4e76ba93a19b26985c87a1581526020017fa0e41b38419d2837cf8ea557f91b638c01c12a70230724ef06825f2393a76a708152505b905060007f000000000000000000000000000000000000000000000000000000000000000073ffffffffffffffffffffffffffffffffffffffff1663e60b57048b8b8b8b8b60405180604001604052808d81526020018c81525060405180604001604052808b600060028110612d0557612d05613f48565b602002015181526020018b600160028110612d2257612d22613f48565b60200201518152506040518863ffffffff1660e01b8152600401612d4c9796959493929190614632565b6020604051808303816000875af1158015612d6b573d6000803e3d6000fd5b505050506040513d601f19601f82011682018060405250810190612d8f9190614224565b90508b80612d9b575080155b15612db35760019a5050505050505050505050610a12565b5060009d9c50505050505050505050505050565b6000612dd161178f565b15612e84576040517f08c379a000000000000000000000000000000000000000000000000000000000815260206004820152604e60248201527f43616e277420757365204c6f67696e2053657276696365207369676e6174757260448201527f6520666f7220616e797468696e6720656c7365207468616e207468652066697260648201527f7374207472616e73616374696f6e000000000000000000000000000000000000608482015260a4016108a5565b600080600080612e938661301f565b9450945094509450506009604051602001612eae9190614514565b6040516020818303038152906040528051906020012084604051602001612ed59190614326565b6040516020818303038152906040528051906020012014612f52576040517f08c379a000000000000000000000000000000000000000000000000000000000815260206004820152601760248201527f696e636f7272656374206c6f67696e20666f722073696700000000000000000060448201526064016108a5565b612f5f8383836000613054565b50600095945050505050565b612f74816124e9565b60405173ffffffffffffffffffffffffffffffffffffffff8216907fbc7cd75a20ee27fd9adebab32041f755214dbc6bffa90cc0225b39da2e5c2d3b90600090a250565b6060610a1283836040518060600160405280602781526020016149f960279139613248565b6000806060806060600080600060608980602001905181019061300091906146ee565b9850985098509850985098509850985098509193959799909294969850565b600060608061302c6136fa565b606085806020019051810190613042919061484a565b939a9299509097509550909350915050565b806130c65760045460ff16156130c6576040517f08c379a000000000000000000000000000000000000000000000000000000000815260206004820152601860248201527f4669727374207369676e657220616c726561647920736574000000000000000060448201526064016108a5565b604051600090613101907f0200000000000000000000000000000000000000000000000000000000000000906009908890889060200161490c565b604051602081830303815290604052805190602001209050600061315c84613156847f19457468657265756d205369676e6564204d6573736167653a0a3332000000006000908152601c91909152603c902090565b906132cd565b90508261323e577f000000000000000000000000000000000000000000000000000000000000000073ffffffffffffffffffffffffffffffffffffffff168173ffffffffffffffffffffffffffffffffffffffff161461323e576040517f08c379a000000000000000000000000000000000000000000000000000000000815260206004820152602160248201527f696e636f7272656374206c6f67696e2073657276696365207369676e6174757260448201527f650000000000000000000000000000000000000000000000000000000000000060648201526084016108a5565b610bc78686612365565b60606000808573ffffffffffffffffffffffffffffffffffffffff16856040516132729190614326565b600060405180830381855af49150503d80600081146132ad576040519150601f19603f3d011682016040523d82523d6000602084013e6132b2565b606091505b50915091506132c3868383876132f1565b9695505050505050565b60008060006132dc8585613391565b915091506132e9816133d6565b509392505050565b606083156133875782516000036133805773ffffffffffffffffffffffffffffffffffffffff85163b613380576040517f08c379a000000000000000000000000000000000000000000000000000000000815260206004820152601d60248201527f416464726573733a2063616c6c20746f206e6f6e2d636f6e747261637400000060448201526064016108a5565b5081611219565b6112198383613589565b60008082516041036133c75760208301516040840151606085015160001a6133bb878285856135cd565b945094505050506133cf565b506000905060025b9250929050565b60008160048111156133ea576133ea614272565b036133f25750565b600181600481111561340657613406614272565b0361346d576040517f08c379a000000000000000000000000000000000000000000000000000000000815260206004820152601860248201527f45434453413a20696e76616c6964207369676e6174757265000000000000000060448201526064016108a5565b600281600481111561348157613481614272565b036134e8576040517f08c379a000000000000000000000000000000000000000000000000000000000815260206004820152601f60248201527f45434453413a20696e76616c6964207369676e6174757265206c656e6774680060448201526064016108a5565b60038160048111156134fc576134fc614272565b036109f0576040517f08c379a000000000000000000000000000000000000000000000000000000000815260206004820152602260248201527f45434453413a20696e76616c6964207369676e6174757265202773272076616c60448201527f756500000000000000000000000000000000000000000000000000000000000060648201526084016108a5565b8151156135995781518083602001fd5b806040517f08c379a00000000000000000000000000000000000000000000000000000000081526004016108a59190613ce1565b6000807f7fffffffffffffffffffffffffffffff5d576e7357a4501ddfe92f46681b20a083111561360457506000905060036136b3565b6040805160008082526020820180845289905260ff881692820192909252606081018690526080810185905260019060a0016020604051602081039080840390855afa158015613658573d6000803e3d6000fd5b50506040517fffffffffffffffffffffffffffffffffffffffffffffffffffffffffffffffe0015191505073ffffffffffffffffffffffffffffffffffffffff81166136ac576000600192509250506136b3565b9150600090505b94509492505050565b82600281019282156136ea579160200282015b828111156136ea5782518255916020019190600101906136cf565b506136f6929150613718565b5090565b60405180604001604052806002906020820280368337509192915050565b5b808211156136f65760008155600101613719565b73ffffffffffffffffffffffffffffffffffffffff811681146109f057600080fd5b60008083601f84011261376157600080fd5b50813567ffffffffffffffff81111561377957600080fd5b6020830191508360208285010111156133cf57600080fd5b60008060008060008060008060c0898b0312156137ad57600080fd5b88356137b88161372d565b975060208901356137c88161372d565b965060408901356137d88161372d565b955060608901359450608089013567ffffffffffffffff808211156137fc57600080fd5b6138088c838d0161374f565b909650945060a08b013591508082111561382157600080fd5b5061382e8b828c0161374f565b999c989b5096995094979396929594505050565b60006020828403121561385457600080fd5b81357fffffffff0000000000000000000000000000000000000000000000000000000081168114610a1257600080fd5b60008060008060006080868803121561389c57600080fd5b85356138a78161372d565b945060208601356138b78161372d565b935060408601359250606086013567ffffffffffffffff8111156138da57600080fd5b6138e68882890161374f565b969995985093965092949392505050565b60006020828403121561390957600080fd5b8135610a128161372d565b7f4e487b7100000000000000000000000000000000000000000000000000000000600052604160045260246000fd5b604051601f82017fffffffffffffffffffffffffffffffffffffffffffffffffffffffffffffffe016810167ffffffffffffffff8111828210171561398a5761398a613914565b604052919050565b600067ffffffffffffffff8211156139ac576139ac613914565b50601f017fffffffffffffffffffffffffffffffffffffffffffffffffffffffffffffffe01660200190565b600082601f8301126139e957600080fd5b81356139fc6139f782613992565b613943565b818152846020838601011115613a1157600080fd5b816020850160208301376000918101602001919091529392505050565b60008060408385031215613a4157600080fd5b823567ffffffffffffffff811115613a5857600080fd5b613a64858286016139d8565b95602094909401359450505050565b600080600060608486031215613a8857600080fd5b833567ffffffffffffffff811115613a9f57600080fd5b84016101608187031215613ab257600080fd5b95602085013595506040909401359392505050565b60008083601f840112613ad957600080fd5b50813567ffffffffffffffff811115613af157600080fd5b6020830191508360208260051b85010111156133cf57600080fd5b60008060008060008060608789031215613b2557600080fd5b863567ffffffffffffffff80821115613b3d57600080fd5b613b498a838b01613ac7565b90985096506020890135915080821115613b6257600080fd5b613b6e8a838b01613ac7565b90965094506040890135915080821115613b8757600080fd5b50613b9489828a01613ac7565b979a9699509497509295939492505050565b60008060408385031215613bb957600080fd5b8235613bc48161372d565b946020939093013593505050565b60008060408385031215613be557600080fd5b8235613bf08161372d565b9150602083013567ffffffffffffffff811115613c0c57600080fd5b613c18858286016139d8565b9150509250929050565b60008060008060608587031215613c3857600080fd5b843567ffffffffffffffff811115613c4f57600080fd5b613c5b8782880161374f565b90989097506020870135966040013595509350505050565b60005b83811015613c8e578181015183820152602001613c76565b50506000910152565b60008151808452613caf816020860160208601613c73565b601f017fffffffffffffffffffffffffffffffffffffffffffffffffffffffffffffffe0169290920160200192915050565b602081526000610a126020830184613c97565b60008060008060808587031215613d0a57600080fd5b8435613d158161372d565b9350602085013592506040850135613d2c8161372d565b91506060850135613d3c8161372d565b939692955090935050565b60008060008060608587031215613d5d57600080fd5b8435613d688161372d565b935060208501359250604085013567ffffffffffffffff811115613d8b57600080fd5b613d978782880161374f565b95989497509550505050565b60008060008060008060008060a0898b031215613dbf57600080fd5b8835613dca8161372d565b97506020890135613dda8161372d565b9650604089013567ffffffffffffffff80821115613df757600080fd5b613e038c838d01613ac7565b909850965060608b0135915080821115613e1c57600080fd5b613e288c838d01613ac7565b909650945060808b013591508082111561382157600080fd5b600080600060608486031215613e5657600080fd5b833567ffffffffffffffff811115613e6d57600080fd5b613e798682870161374f565b90945092505060608401851015613e8f57600080fd5b6020840190509250925092565b60008060008060008060a08789031215613eb557600080fd5b8635613ec08161372d565b95506020870135613ed08161372d565b94506040870135935060608701359250608087013567ffffffffffffffff811115613efa57600080fd5b613b9489828a0161374f565b60008060208385031215613f1957600080fd5b823567ffffffffffffffff811115613f3057600080fd5b613f3c8582860161374f565b90969095509350505050565b7f4e487b7100000000000000000000000000000000000000000000000000000000600052603260045260246000fd5b60008083357fffffffffffffffffffffffffffffffffffffffffffffffffffffffffffffffe1843603018112613fac57600080fd5b83018035915067ffffffffffffffff821115613fc757600080fd5b6020019150368190038213156133cf57600080fd5b7f4e487b7100000000000000000000000000000000000000000000000000000000600052601160045260246000fd5b60007fffffffffffffffffffffffffffffffffffffffffffffffffffffffffffffffff820361403c5761403c613fdc565b5060010190565b8181038181111561078057610780613fdc565b6000808585111561406657600080fd5b8386111561407357600080fd5b5050820193919092039150565b60006020828403121561409257600080fd5b815160ff81168114610a1257600080fd5b600181815b808511156140fc57817fffffffffffffffffffffffffffffffffffffffffffffffffffffffffffffffff048211156140e2576140e2613fdc565b808516156140ef57918102915b93841c93908002906140a8565b509250929050565b60008261411357506001610780565b8161412057506000610780565b816001811461413657600281146141405761415c565b6001915050610780565b60ff84111561415157614151613fdc565b50506001821b610780565b5060208310610133831016604e8410600b841016171561417f575081810a610780565b61418983836140a3565b807fffffffffffffffffffffffffffffffffffffffffffffffffffffffffffffffff048211156141bb576141bb613fdc565b029392505050565b6000610a1260ff841683614104565b808202811582820484141761078057610780613fdc565b60008261421f577f4e487b7100000000000000000000000000000000000000000000000000000000600052601260045260246000fd5b500490565b60006020828403121561423657600080fd5b81518015158114610a1257600080fd5b8082018082111561078057610780613fdc565b60006020828403121561426b57600080fd5b5051919050565b7f4e487b7100000000000000000000000000000000000000000000000000000000600052602160045260246000fd5b60006142af6139f784613992565b90508281528383830111156142c357600080fd5b610a12836020830184613c73565b600082601f8301126142e257600080fd5b610a12838351602085016142a1565b60006020828403121561430357600080fd5b815167ffffffffffffffff81111561431a57600080fd5b611219848285016142d1565b60008251614338818460208701613c73565b9190910192915050565b600060ff821660ff810361435857614358613fdc565b60010192915050565b600181811c9082168061437557607f821691505b6020821081036143ae577f4e487b7100000000000000000000000000000000000000000000000000000000600052602260045260246000fd5b50919050565b601f8211156118ef57600081815260208120601f850160051c810160208610156143db5750805b601f850160051c820191505b81811015610bc7578281556001016143e7565b67ffffffffffffffff83111561441257614412613914565b614426836144208354614361565b836143b4565b6000601f84116001811461447857600085156144425750838201355b7fffffffffffffffffffffffffffffffffffffffffffffffffffffffffffffffff600387901b1c1916600186901b178355610c6e565b6000838152602090207fffffffffffffffffffffffffffffffffffffffffffffffffffffffffffffffe0861690835b828110156144c757868501358255602094850194600190920191016144a7565b5086821015614502577fffffffffffffffffffffffffffffffffffffffffffffffffffffffffffffffff60f88860031b161c19848701351681555b505060018560011b0183555050505050565b600080835461452281614361565b6001828116801561453a576001811461456d5761459c565b7fffffffffffffffffffffffffffffffffffffffffffffffffffffffffffffff008416875282151583028701945061459c565b8760005260208060002060005b858110156145935781548a82015290840190820161457a565b50505082870194505b50929695505050505050565b805160208083015191908110156143ae577fffffffffffffffffffffffffffffffffffffffffffffffffffffffffffffffff60209190910360031b1b16919050565b6060815260006145fd6060830186613c97565b60208301949094525060400152919050565b8060005b60028110156116a4578151845260209384019390910190600101614613565b60006101207fff000000000000000000000000000000000000000000000000000000000000008a16835280602084015261466e8184018a613c97565b905082810360408401526146828189613c97565b905082810360608401526146968188613c97565b9150508460808301526146ac60a083018561460f565b6116cc60e083018461460f565b80517fff00000000000000000000000000000000000000000000000000000000000000811681146146e957600080fd5b919050565b60008060008060008060008060006101208a8c03121561470d57600080fd5b6147168a6146b9565b985061472460208b016146b9565b975060408a015167ffffffffffffffff8082111561474157600080fd5b61474d8d838e016142d1565b985060608c015191508082111561476357600080fd5b61476f8d838e016142d1565b975060808c015191508082111561478557600080fd5b6147918d838e016142d1565b965060a08c0151955060c08c0151945060e08c015193506101008c01519150808211156147bd57600080fd5b506147ca8c828d016142d1565b9150509295985092959850929598565b600082601f8301126147eb57600080fd5b6040516040810181811067ffffffffffffffff8211171561480e5761480e613914565b806040525080604084018581111561482557600080fd5b845b8181101561483f578051835260209283019201614827565b509195945050505050565b600080600080600060c0868803121561486257600080fd5b61486b866146b9565b9450602086015167ffffffffffffffff8082111561488857600080fd5b818801915088601f83011261489c57600080fd5b6148ab898351602085016142a1565b955060408801519150808211156148c157600080fd5b6148cd89838a016142d1565b94506148dc8960608a016147da565b935060a08801519150808211156148f257600080fd5b506148ff888289016142d1565b9150509295509295909350565b7fff00000000000000000000000000000000000000000000000000000000000000851681526000602060a0818401526000865461494881614361565b8060a087015260c060018084166000811461496a57600181146149a2576149d0565b7fffffffffffffffffffffffffffffffffffffffffffffffffffffffffffffff008516838a01528284151560051b8a010195506149d0565b8b6000528660002060005b858110156149c85781548b82018601529083019088016149ad565b8a0184019650505b505050505083810360408501526149e78187613c97565b925050506107a8606083018461460f56fe416464726573733a206c6f772d6c6576656c2064656c65676174652063616c6c206661696c6564",
    "linkReferences": {}
  },
  "methodIdentifiers": {
    "_signers(bytes,uint256)": "312f2f15",
    "_signersCount()": "66563614",
    "addDeposit()": "4a58db19",
    "addFirstSigner(bytes,uint256[2])": "ff69191d",
    "addOwner(address)": "7065cb48",
    "addSigner(bytes,uint256[2])": "d2a57ad1",
    "entryPoint()": "b0d691fe",
    "execute(address,uint256,bytes)": "b61d27f6",
    "executeBatch(address[],uint256[],bytes[])": "47e1da2a",
    "factory()": "c45a0155",
    "getDeposit()": "c399ec88",
    "getNonce()": "d087d288",
    "guardianCount()": "54387ad7",
    "initialize(string)": "f62d1888",
    "isOwner(address)": "2f54bf6e",
    "loginService()": "4640fc4d",
    "onERC1155BatchReceived(address,address,uint256[],uint256[],bytes)": "bc197c81",
    "onERC1155Received(address,address,uint256,uint256,bytes)": "f23a6e61",
    "onERC721Received(address,address,uint256,bytes)": "150b7a02",
    "ownerCount()": "0db02622",
    "pay(address,uint256,address,address)": "a5e0e198",
    "proxiableUUID()": "52d1902d",
    "setDailyAllowance(address,uint256)": "5a20d41c",
    "sliceBytes(bytes,uint256,uint256)": "9f070142",
    "supportsInterface(bytes4)": "01ffc9a7",
    "tokensReceived(address,address,address,uint256,bytes,bytes)": "0023de29",
    "upgradeTo(address)": "3659cfe6",
    "upgradeToAndCall(address,bytes)": "4f1ef286",
    "validateUserOp((address,uint256,bytes,bytes,uint256,uint256,uint256,uint256,uint256,bytes,bytes),bytes32,uint256)": "3a871cdd",
    "webauthnVerifier()": "1c35b2f8",
    "withdrawDepositTo(address,uint256)": "4d44560d"
  },
  "id": 66
}